{
	"data": {
		"bytecode": {
			"linkReferences": {},
			"object": "60806040526000600255600060065534801561001a57600080fd5b50604051620017643803806200176483398101604081905261003b916100d0565b61004b61004661007c565b610080565b600180546001600160a01b0319166001600160a01b0394909416939093179092556003556007819055600855610111565b3390565b600080546001600160a01b038381166001600160a01b0319831681178455604051919092169283917f8be0079c531659141344cd1fd0a4f28419497f9722a3daafe3b4186f6b6457e09190a35050565b6000806000606084860312156100e4578283fd5b83516001600160a01b03811681146100fa578384fd5b602085015160409095015190969495509392505050565b61164380620001216000396000f3fe608060405234801561001057600080fd5b506004361061014d5760003560e01c8063630b5ba1116100c357806393f1a40b1161007c57806393f1a40b14610251578063a238310614610272578063ca1d209d14610285578063e2bbb15814610298578063e4c75c27146102ab578063f2fde38b146102be5761014d565b8063630b5ba11461020957806364482f7914610211578063715018a614610224578063785e9e861461022c5780638ae39cac146102415780638da5cb5b146102495761014d565b80633f90916a116101155780633f90916a146101b8578063441a3e70146101c057806348cd4cb1146101d357806351eb05a6146101db5780635312ea8e146101ee5780635c76ca2d146102015761014d565b8063081e3eda14610152578063083c6323146101705780631526fe271461017857806317caf6f11461019b5780631eaaa045146101a3575b600080fd5b61015a6102d1565b6040516101679190611508565b60405180910390f35b61015a6102d8565b61018b610186366004611186565b6102de565b60405161016794939291906112e1565b61015a610322565b6101b66101b13660046111e5565b610328565b005b61015a610497565b6101b66101ce366004611226565b6104ed565b61015a610641565b6101b66101e9366004611186565b610647565b6101b66101fc366004611186565b6107bf565b61015a610872565b6101b6610878565b6101b661021f366004611247565b6108a3565b6101b6610983565b6102346109ce565b6040516101679190611290565b61015a6109dd565b6102346109e3565b61026461025f3660046111b6565b6109f2565b604051610167929190611511565b61015a6102803660046111b6565b610a16565b6101b6610293366004611186565b610a3e565b6101b66102a6366004611226565b610a9e565b61015a6102b93660046111b6565b610bce565b6101b66102cc36600461114e565b610d8e565b6004545b90565b60085481565b600481815481106102ee57600080fd5b600091825260209091206004909102018054600182015460028301546003909301546001600160a01b039092169350919084565b60065481565b610330610dfc565b6001600160a01b03166103416109e3565b6001600160a01b0316146103705760405162461bcd60e51b8152600401610367906113c6565b60405180910390fd5b801561037e5761037e610878565b6000600754431161039157600754610393565b435b6006549091506103a39085610e00565b600655604080516080810182526001600160a01b03948516815260208101958652908101918252600060608201818152600480546001810182559281905292517f8a35acfbc15ff81a39ae7d344fd709f28e8600b4aa8c65c6b64bfe7fe36bd19b9290930291820180546001600160a01b031916939096169290921790945593517f8a35acfbc15ff81a39ae7d344fd709f28e8600b4aa8c65c6b64bfe7fe36bd19c840155517f8a35acfbc15ff81a39ae7d344fd709f28e8600b4aa8c65c6b64bfe7fe36bd19d8301555090517f8a35acfbc15ff81a39ae7d344fd709f28e8600b4aa8c65c6b64bfe7fe36bd19e90910155565b600060075443116104aa575060006102d5565b600060085443106104bd576008546104bf565b435b90506104e76002546104e1600754846104d89190611576565b60035490610e13565b90610e1f565b91505090565b60006004838154811061051057634e487b7160e01b600052603260045260246000fd5b6000918252602080832086845260058252604080852033865290925292208054600490920290920192508311156105595760405162461bcd60e51b81526004016103679061143d565b61056284610647565b600061059f82600101546104e16a0c097ce7bc90715b34b9f160241b61059987600301548760000154610e1390919063ffffffff16565b90610e2b565b90506105ab3382610e37565b81546105b79085610e1f565b80835560038401546105dd916a0c097ce7bc90715b34b9f160241b916105999190610e13565b600183015582546105f8906001600160a01b03163386610ed7565b84336001600160a01b03167ff279e6a1f5e320cca91135676d9cb6e44ca8a08c0b88342bcdb1144f6511b568866040516106329190611508565b60405180910390a35050505050565b60075481565b60006004828154811061066a57634e487b7160e01b600052603260045260246000fd5b906000526020600020906004020190506000600854431061068d5760085461068f565b435b9050816002015481116106a35750506107bc565b81546040516370a0823160e01b81526000916001600160a01b0316906370a08231906106d3903090600401611290565b60206040518083038186803b1580156106eb57600080fd5b505afa1580156106ff573d6000803e3d6000fd5b505050506040513d601f19601f82011682018060405250810190610723919061119e565b90508061073657506002909101556107bc565b600061074f846002015484610e1f90919063ffffffff16565b9050600061077c600654610599876001015461077660035487610e1390919063ffffffff16565b90610e13565b90506107a861079d84610599846a0c097ce7bc90715b34b9f160241b610e13565b600387015490610e00565b600386015550504360029093019290925550505b50565b6000600482815481106107e257634e487b7160e01b600052603260045260246000fd5b60009182526020808320858452600582526040808520338087529352909320805460049093029093018054909450610827926001600160a01b03919091169190610ed7565b8054604051849133917fbb757047c2b5f3974fe26b7c10f732e7bce710b0952a71082702781e62ae05959161085b91611508565b60405180910390a360008082556001909101555050565b60025481565b60045460005b8181101561089f5761088f81610647565b610898816115b9565b905061087e565b5050565b6108ab610dfc565b6001600160a01b03166108bc6109e3565b6001600160a01b0316146108e25760405162461bcd60e51b8152600401610367906113c6565b80156108f0576108f0610878565b6109418261093b6004868154811061091857634e487b7160e01b600052603260045260246000fd5b906000526020600020906004020160010154600654610e1f90919063ffffffff16565b90610e00565b600681905550816004848154811061096957634e487b7160e01b600052603260045260246000fd5b906000526020600020906004020160010181905550505050565b61098b610dfc565b6001600160a01b031661099c6109e3565b6001600160a01b0316146109c25760405162461bcd60e51b8152600401610367906113c6565b6109cc6000610f32565b565b6001546001600160a01b031681565b60035481565b6000546001600160a01b031690565b60056020908152600092835260408084209091529082529020805460019091015482565b60009182526005602090815260408084206001600160a01b0393909316845291905290205490565b6008544310610a5f5760405162461bcd60e51b8152600401610367906113fb565b600154610a77906001600160a01b0316333084610f82565b600354610a85908290610e2b565b60086000828254610a96919061151f565b909155505050565b600060048381548110610ac157634e487b7160e01b600052603260045260246000fd5b60009182526020808320868452600582526040808520338652909252922060049091029091019150610af284610647565b805415610b3e576000610b3082600101546104e16a0c097ce7bc90715b34b9f160241b61059987600301548760000154610e1390919063ffffffff16565b9050610b3c3382610e37565b505b8154610b55906001600160a01b0316333086610f82565b8054610b619084610e00565b8082556003830154610b87916a0c097ce7bc90715b34b9f160241b916105999190610e13565b6001820155604051849033907f90890809c654f11d6e72a28fa60149770a0d11ec6c92319d6ceb2bb0a4ea1a1590610bc0908790611508565b60405180910390a350505050565b60008060048481548110610bf257634e487b7160e01b600052603260045260246000fd5b600091825260208083208784526005825260408085206001600160a01b038981168752935280852060049485029092016003810154815492516370a0823160e01b815291975092959294929391909116916370a0823191610c5591309101611290565b60206040518083038186803b158015610c6d57600080fd5b505afa158015610c81573d6000803e3d6000fd5b505050506040513d601f19601f82011682018060405250810190610ca5919061119e565b905060006008544310610cba57600854610cbc565b435b9050846002015481118015610cd45750846002015443115b8015610cdf57508115155b15610d51576000610cfd866002015483610e1f90919063ffffffff16565b90506000610d24600654610599896001015461077660035487610e1390919063ffffffff16565b9050610d4c610d4585610599846a0c097ce7bc90715b34b9f160241b610e13565b8690610e00565b945050505b610d8284600101546104e16a0c097ce7bc90715b34b9f160241b610599878960000154610e1390919063ffffffff16565b98975050505050505050565b610d96610dfc565b6001600160a01b0316610da76109e3565b6001600160a01b031614610dcd5760405162461bcd60e51b8152600401610367906113c6565b6001600160a01b038116610df35760405162461bcd60e51b81526004016103679061133a565b6107bc81610f32565b3390565b6000610e0c828461151f565b9392505050565b6000610e0c8284611557565b6000610e0c8284611576565b6000610e0c8284611537565b60015460405163a9059cbb60e01b81526001600160a01b039091169063a9059cbb90610e6990859085906004016112c8565b602060405180830381600087803b158015610e8357600080fd5b505af1158015610e97573d6000803e3d6000fd5b505050506040513d601f19601f82011682018060405250810190610ebb919061116a565b508060026000828254610ece919061151f565b90915550505050565b610f2d8363a9059cbb60e01b8484604051602401610ef69291906112c8565b60408051601f198184030181529190526020810180516001600160e01b03166001600160e01b031990931692909217909152610fa9565b505050565b600080546001600160a01b038381166001600160a01b0319831681178455604051919092169283917f8be0079c531659141344cd1fd0a4f28419497f9722a3daafe3b4186f6b6457e09190a35050565b610fa3846323b872dd60e01b858585604051602401610ef6939291906112a4565b50505050565b6000610ffe826040518060400160405280602081526020017f5361666545524332303a206c6f772d6c6576656c2063616c6c206661696c6564815250856001600160a01b03166110389092919063ffffffff16565b805190915015610f2d578080602001905181019061101c919061116a565b610f2d5760405162461bcd60e51b8152600401610367906114be565b6060611047848460008561104f565b949350505050565b6060824710156110715760405162461bcd60e51b815260040161036790611380565b61107a8561110f565b6110965760405162461bcd60e51b815260040161036790611487565b600080866001600160a01b031685876040516110b29190611274565b60006040518083038185875af1925050503d80600081146110ef576040519150601f19603f3d011682016040523d82523d6000602084013e6110f4565b606091505b5091509150611104828286611115565b979650505050505050565b3b151590565b60608315611124575081610e0c565b8251156111345782518084602001fd5b8160405162461bcd60e51b81526004016103679190611307565b60006020828403121561115f578081fd5b8135610e0c816115ea565b60006020828403121561117b578081fd5b8151610e0c816115ff565b600060208284031215611197578081fd5b5035919050565b6000602082840312156111af578081fd5b5051919050565b600080604083850312156111c8578081fd5b8235915060208301356111da816115ea565b809150509250929050565b6000806000606084860312156111f9578081fd5b83359250602084013561120b816115ea565b9150604084013561121b816115ff565b809150509250925092565b60008060408385031215611238578182fd5b50508035926020909101359150565b60008060006060848603121561125b578283fd5b8335925060208401359150604084013561121b816115ff565b6000825161128681846020870161158d565b9190910192915050565b6001600160a01b0391909116815260200190565b6001600160a01b039384168152919092166020820152604081019190915260600190565b6001600160a01b03929092168252602082015260400190565b6001600160a01b0394909416845260208401929092526040830152606082015260800190565b600060208252825180602084015261132681604085016020870161158d565b601f01601f19169190910160400192915050565b60208082526026908201527f4f776e61626c653a206e6577206f776e657220697320746865207a65726f206160408201526564647265737360d01b606082015260800190565b60208082526026908201527f416464726573733a20696e73756666696369656e742062616c616e636520666f6040820152651c8818d85b1b60d21b606082015260800190565b6020808252818101527f4f776e61626c653a2063616c6c6572206973206e6f7420746865206f776e6572604082015260600190565b60208082526022908201527f66756e643a20746f6f206c6174652c20746865206661726d20697320636c6f73604082015261195960f21b606082015260800190565b6020808252602a908201527f77697468647261773a2063616e2774207769746864726177206d6f7265207468604082015269185b8819195c1bdcda5d60b21b606082015260800190565b6020808252601d908201527f416464726573733a2063616c6c20746f206e6f6e2d636f6e7472616374000000604082015260600190565b6020808252602a908201527f5361666545524332303a204552433230206f7065726174696f6e20646964206e6040820152691bdd081cdd58d8d9595960b21b606082015260800190565b90815260200190565b918252602082015260400190565b60008219821115611532576115326115d4565b500190565b60008261155257634e487b7160e01b81526012600452602481fd5b500490565b6000816000190483118215151615611571576115716115d4565b500290565b600082821015611588576115886115d4565b500390565b60005b838110156115a8578181015183820152602001611590565b83811115610fa35750506000910152565b60006000198214156115cd576115cd6115d4565b5060010190565b634e487b7160e01b600052601160045260246000fd5b6001600160a01b03811681146107bc57600080fd5b80151581146107bc57600080fdfea26469706673582212203bd388f480416768a4f710825839023eeaeb0d524b46a1e31df8c6f73b46fd8b64736f6c63430008000033",
			"opcodes": "PUSH1 0x80 PUSH1 0x40 MSTORE PUSH1 0x0 PUSH1 0x2 SSTORE PUSH1 0x0 PUSH1 0x6 SSTORE CALLVALUE DUP1 ISZERO PUSH2 0x1A JUMPI PUSH1 0x0 DUP1 REVERT JUMPDEST POP PUSH1 0x40 MLOAD PUSH3 0x1764 CODESIZE SUB DUP1 PUSH3 0x1764 DUP4 CODECOPY DUP2 ADD PUSH1 0x40 DUP2 SWAP1 MSTORE PUSH2 0x3B SWAP2 PUSH2 0xD0 JUMP JUMPDEST PUSH2 0x4B PUSH2 0x46 PUSH2 0x7C JUMP JUMPDEST PUSH2 0x80 JUMP JUMPDEST PUSH1 0x1 DUP1 SLOAD PUSH1 0x1 PUSH1 0x1 PUSH1 0xA0 SHL SUB NOT AND PUSH1 0x1 PUSH1 0x1 PUSH1 0xA0 SHL SUB SWAP5 SWAP1 SWAP5 AND SWAP4 SWAP1 SWAP4 OR SWAP1 SWAP3 SSTORE PUSH1 0x3 SSTORE PUSH1 0x7 DUP2 SWAP1 SSTORE PUSH1 0x8 SSTORE PUSH2 0x111 JUMP JUMPDEST CALLER SWAP1 JUMP JUMPDEST PUSH1 0x0 DUP1 SLOAD PUSH1 0x1 PUSH1 0x1 PUSH1 0xA0 SHL SUB DUP4 DUP2 AND PUSH1 0x1 PUSH1 0x1 PUSH1 0xA0 SHL SUB NOT DUP4 AND DUP2 OR DUP5 SSTORE PUSH1 0x40 MLOAD SWAP2 SWAP1 SWAP3 AND SWAP3 DUP4 SWAP2 PUSH32 0x8BE0079C531659141344CD1FD0A4F28419497F9722A3DAAFE3B4186F6B6457E0 SWAP2 SWAP1 LOG3 POP POP JUMP JUMPDEST PUSH1 0x0 DUP1 PUSH1 0x0 PUSH1 0x60 DUP5 DUP7 SUB SLT ISZERO PUSH2 0xE4 JUMPI DUP3 DUP4 REVERT JUMPDEST DUP4 MLOAD PUSH1 0x1 PUSH1 0x1 PUSH1 0xA0 SHL SUB DUP2 AND DUP2 EQ PUSH2 0xFA JUMPI DUP4 DUP5 REVERT JUMPDEST PUSH1 0x20 DUP6 ADD MLOAD PUSH1 0x40 SWAP1 SWAP6 ADD MLOAD SWAP1 SWAP7 SWAP5 SWAP6 POP SWAP4 SWAP3 POP POP POP JUMP JUMPDEST PUSH2 0x1643 DUP1 PUSH3 0x121 PUSH1 0x0 CODECOPY PUSH1 0x0 RETURN INVALID PUSH1 0x80 PUSH1 0x40 MSTORE CALLVALUE DUP1 ISZERO PUSH2 0x10 JUMPI PUSH1 0x0 DUP1 REVERT JUMPDEST POP PUSH1 0x4 CALLDATASIZE LT PUSH2 0x14D JUMPI PUSH1 0x0 CALLDATALOAD PUSH1 0xE0 SHR DUP1 PUSH4 0x630B5BA1 GT PUSH2 0xC3 JUMPI DUP1 PUSH4 0x93F1A40B GT PUSH2 0x7C JUMPI DUP1 PUSH4 0x93F1A40B EQ PUSH2 0x251 JUMPI DUP1 PUSH4 0xA2383106 EQ PUSH2 0x272 JUMPI DUP1 PUSH4 0xCA1D209D EQ PUSH2 0x285 JUMPI DUP1 PUSH4 0xE2BBB158 EQ PUSH2 0x298 JUMPI DUP1 PUSH4 0xE4C75C27 EQ PUSH2 0x2AB JUMPI DUP1 PUSH4 0xF2FDE38B EQ PUSH2 0x2BE JUMPI PUSH2 0x14D JUMP JUMPDEST DUP1 PUSH4 0x630B5BA1 EQ PUSH2 0x209 JUMPI DUP1 PUSH4 0x64482F79 EQ PUSH2 0x211 JUMPI DUP1 PUSH4 0x715018A6 EQ PUSH2 0x224 JUMPI DUP1 PUSH4 0x785E9E86 EQ PUSH2 0x22C JUMPI DUP1 PUSH4 0x8AE39CAC EQ PUSH2 0x241 JUMPI DUP1 PUSH4 0x8DA5CB5B EQ PUSH2 0x249 JUMPI PUSH2 0x14D JUMP JUMPDEST DUP1 PUSH4 0x3F90916A GT PUSH2 0x115 JUMPI DUP1 PUSH4 0x3F90916A EQ PUSH2 0x1B8 JUMPI DUP1 PUSH4 0x441A3E70 EQ PUSH2 0x1C0 JUMPI DUP1 PUSH4 0x48CD4CB1 EQ PUSH2 0x1D3 JUMPI DUP1 PUSH4 0x51EB05A6 EQ PUSH2 0x1DB JUMPI DUP1 PUSH4 0x5312EA8E EQ PUSH2 0x1EE JUMPI DUP1 PUSH4 0x5C76CA2D EQ PUSH2 0x201 JUMPI PUSH2 0x14D JUMP JUMPDEST DUP1 PUSH4 0x81E3EDA EQ PUSH2 0x152 JUMPI DUP1 PUSH4 0x83C6323 EQ PUSH2 0x170 JUMPI DUP1 PUSH4 0x1526FE27 EQ PUSH2 0x178 JUMPI DUP1 PUSH4 0x17CAF6F1 EQ PUSH2 0x19B JUMPI DUP1 PUSH4 0x1EAAA045 EQ PUSH2 0x1A3 JUMPI JUMPDEST PUSH1 0x0 DUP1 REVERT JUMPDEST PUSH2 0x15A PUSH2 0x2D1 JUMP JUMPDEST PUSH1 0x40 MLOAD PUSH2 0x167 SWAP2 SWAP1 PUSH2 0x1508 JUMP JUMPDEST PUSH1 0x40 MLOAD DUP1 SWAP2 SUB SWAP1 RETURN JUMPDEST PUSH2 0x15A PUSH2 0x2D8 JUMP JUMPDEST PUSH2 0x18B PUSH2 0x186 CALLDATASIZE PUSH1 0x4 PUSH2 0x1186 JUMP JUMPDEST PUSH2 0x2DE JUMP JUMPDEST PUSH1 0x40 MLOAD PUSH2 0x167 SWAP5 SWAP4 SWAP3 SWAP2 SWAP1 PUSH2 0x12E1 JUMP JUMPDEST PUSH2 0x15A PUSH2 0x322 JUMP JUMPDEST PUSH2 0x1B6 PUSH2 0x1B1 CALLDATASIZE PUSH1 0x4 PUSH2 0x11E5 JUMP JUMPDEST PUSH2 0x328 JUMP JUMPDEST STOP JUMPDEST PUSH2 0x15A PUSH2 0x497 JUMP JUMPDEST PUSH2 0x1B6 PUSH2 0x1CE CALLDATASIZE PUSH1 0x4 PUSH2 0x1226 JUMP JUMPDEST PUSH2 0x4ED JUMP JUMPDEST PUSH2 0x15A PUSH2 0x641 JUMP JUMPDEST PUSH2 0x1B6 PUSH2 0x1E9 CALLDATASIZE PUSH1 0x4 PUSH2 0x1186 JUMP JUMPDEST PUSH2 0x647 JUMP JUMPDEST PUSH2 0x1B6 PUSH2 0x1FC CALLDATASIZE PUSH1 0x4 PUSH2 0x1186 JUMP JUMPDEST PUSH2 0x7BF JUMP JUMPDEST PUSH2 0x15A PUSH2 0x872 JUMP JUMPDEST PUSH2 0x1B6 PUSH2 0x878 JUMP JUMPDEST PUSH2 0x1B6 PUSH2 0x21F CALLDATASIZE PUSH1 0x4 PUSH2 0x1247 JUMP JUMPDEST PUSH2 0x8A3 JUMP JUMPDEST PUSH2 0x1B6 PUSH2 0x983 JUMP JUMPDEST PUSH2 0x234 PUSH2 0x9CE JUMP JUMPDEST PUSH1 0x40 MLOAD PUSH2 0x167 SWAP2 SWAP1 PUSH2 0x1290 JUMP JUMPDEST PUSH2 0x15A PUSH2 0x9DD JUMP JUMPDEST PUSH2 0x234 PUSH2 0x9E3 JUMP JUMPDEST PUSH2 0x264 PUSH2 0x25F CALLDATASIZE PUSH1 0x4 PUSH2 0x11B6 JUMP JUMPDEST PUSH2 0x9F2 JUMP JUMPDEST PUSH1 0x40 MLOAD PUSH2 0x167 SWAP3 SWAP2 SWAP1 PUSH2 0x1511 JUMP JUMPDEST PUSH2 0x15A PUSH2 0x280 CALLDATASIZE PUSH1 0x4 PUSH2 0x11B6 JUMP JUMPDEST PUSH2 0xA16 JUMP JUMPDEST PUSH2 0x1B6 PUSH2 0x293 CALLDATASIZE PUSH1 0x4 PUSH2 0x1186 JUMP JUMPDEST PUSH2 0xA3E JUMP JUMPDEST PUSH2 0x1B6 PUSH2 0x2A6 CALLDATASIZE PUSH1 0x4 PUSH2 0x1226 JUMP JUMPDEST PUSH2 0xA9E JUMP JUMPDEST PUSH2 0x15A PUSH2 0x2B9 CALLDATASIZE PUSH1 0x4 PUSH2 0x11B6 JUMP JUMPDEST PUSH2 0xBCE JUMP JUMPDEST PUSH2 0x1B6 PUSH2 0x2CC CALLDATASIZE PUSH1 0x4 PUSH2 0x114E JUMP JUMPDEST PUSH2 0xD8E JUMP JUMPDEST PUSH1 0x4 SLOAD JUMPDEST SWAP1 JUMP JUMPDEST PUSH1 0x8 SLOAD DUP2 JUMP JUMPDEST PUSH1 0x4 DUP2 DUP2 SLOAD DUP2 LT PUSH2 0x2EE JUMPI PUSH1 0x0 DUP1 REVERT JUMPDEST PUSH1 0x0 SWAP2 DUP3 MSTORE PUSH1 0x20 SWAP1 SWAP2 KECCAK256 PUSH1 0x4 SWAP1 SWAP2 MUL ADD DUP1 SLOAD PUSH1 0x1 DUP3 ADD SLOAD PUSH1 0x2 DUP4 ADD SLOAD PUSH1 0x3 SWAP1 SWAP4 ADD SLOAD PUSH1 0x1 PUSH1 0x1 PUSH1 0xA0 SHL SUB SWAP1 SWAP3 AND SWAP4 POP SWAP2 SWAP1 DUP5 JUMP JUMPDEST PUSH1 0x6 SLOAD DUP2 JUMP JUMPDEST PUSH2 0x330 PUSH2 0xDFC JUMP JUMPDEST PUSH1 0x1 PUSH1 0x1 PUSH1 0xA0 SHL SUB AND PUSH2 0x341 PUSH2 0x9E3 JUMP JUMPDEST PUSH1 0x1 PUSH1 0x1 PUSH1 0xA0 SHL SUB AND EQ PUSH2 0x370 JUMPI PUSH1 0x40 MLOAD PUSH3 0x461BCD PUSH1 0xE5 SHL DUP2 MSTORE PUSH1 0x4 ADD PUSH2 0x367 SWAP1 PUSH2 0x13C6 JUMP JUMPDEST PUSH1 0x40 MLOAD DUP1 SWAP2 SUB SWAP1 REVERT JUMPDEST DUP1 ISZERO PUSH2 0x37E JUMPI PUSH2 0x37E PUSH2 0x878 JUMP JUMPDEST PUSH1 0x0 PUSH1 0x7 SLOAD NUMBER GT PUSH2 0x391 JUMPI PUSH1 0x7 SLOAD PUSH2 0x393 JUMP JUMPDEST NUMBER JUMPDEST PUSH1 0x6 SLOAD SWAP1 SWAP2 POP PUSH2 0x3A3 SWAP1 DUP6 PUSH2 0xE00 JUMP JUMPDEST PUSH1 0x6 SSTORE PUSH1 0x40 DUP1 MLOAD PUSH1 0x80 DUP2 ADD DUP3 MSTORE PUSH1 0x1 PUSH1 0x1 PUSH1 0xA0 SHL SUB SWAP5 DUP6 AND DUP2 MSTORE PUSH1 0x20 DUP2 ADD SWAP6 DUP7 MSTORE SWAP1 DUP2 ADD SWAP2 DUP3 MSTORE PUSH1 0x0 PUSH1 0x60 DUP3 ADD DUP2 DUP2 MSTORE PUSH1 0x4 DUP1 SLOAD PUSH1 0x1 DUP2 ADD DUP3 SSTORE SWAP3 DUP2 SWAP1 MSTORE SWAP3 MLOAD PUSH32 0x8A35ACFBC15FF81A39AE7D344FD709F28E8600B4AA8C65C6B64BFE7FE36BD19B SWAP3 SWAP1 SWAP4 MUL SWAP2 DUP3 ADD DUP1 SLOAD PUSH1 0x1 PUSH1 0x1 PUSH1 0xA0 SHL SUB NOT AND SWAP4 SWAP1 SWAP7 AND SWAP3 SWAP1 SWAP3 OR SWAP1 SWAP5 SSTORE SWAP4 MLOAD PUSH32 0x8A35ACFBC15FF81A39AE7D344FD709F28E8600B4AA8C65C6B64BFE7FE36BD19C DUP5 ADD SSTORE MLOAD PUSH32 0x8A35ACFBC15FF81A39AE7D344FD709F28E8600B4AA8C65C6B64BFE7FE36BD19D DUP4 ADD SSTORE POP SWAP1 MLOAD PUSH32 0x8A35ACFBC15FF81A39AE7D344FD709F28E8600B4AA8C65C6B64BFE7FE36BD19E SWAP1 SWAP2 ADD SSTORE JUMP JUMPDEST PUSH1 0x0 PUSH1 0x7 SLOAD NUMBER GT PUSH2 0x4AA JUMPI POP PUSH1 0x0 PUSH2 0x2D5 JUMP JUMPDEST PUSH1 0x0 PUSH1 0x8 SLOAD NUMBER LT PUSH2 0x4BD JUMPI PUSH1 0x8 SLOAD PUSH2 0x4BF JUMP JUMPDEST NUMBER JUMPDEST SWAP1 POP PUSH2 0x4E7 PUSH1 0x2 SLOAD PUSH2 0x4E1 PUSH1 0x7 SLOAD DUP5 PUSH2 0x4D8 SWAP2 SWAP1 PUSH2 0x1576 JUMP JUMPDEST PUSH1 0x3 SLOAD SWAP1 PUSH2 0xE13 JUMP JUMPDEST SWAP1 PUSH2 0xE1F JUMP JUMPDEST SWAP2 POP POP SWAP1 JUMP JUMPDEST PUSH1 0x0 PUSH1 0x4 DUP4 DUP2 SLOAD DUP2 LT PUSH2 0x510 JUMPI PUSH4 0x4E487B71 PUSH1 0xE0 SHL PUSH1 0x0 MSTORE PUSH1 0x32 PUSH1 0x4 MSTORE PUSH1 0x24 PUSH1 0x0 REVERT JUMPDEST PUSH1 0x0 SWAP2 DUP3 MSTORE PUSH1 0x20 DUP1 DUP4 KECCAK256 DUP7 DUP5 MSTORE PUSH1 0x5 DUP3 MSTORE PUSH1 0x40 DUP1 DUP6 KECCAK256 CALLER DUP7 MSTORE SWAP1 SWAP3 MSTORE SWAP3 KECCAK256 DUP1 SLOAD PUSH1 0x4 SWAP1 SWAP3 MUL SWAP1 SWAP3 ADD SWAP3 POP DUP4 GT ISZERO PUSH2 0x559 JUMPI PUSH1 0x40 MLOAD PUSH3 0x461BCD PUSH1 0xE5 SHL DUP2 MSTORE PUSH1 0x4 ADD PUSH2 0x367 SWAP1 PUSH2 0x143D JUMP JUMPDEST PUSH2 0x562 DUP5 PUSH2 0x647 JUMP JUMPDEST PUSH1 0x0 PUSH2 0x59F DUP3 PUSH1 0x1 ADD SLOAD PUSH2 0x4E1 PUSH11 0xC097CE7BC90715B34B9F1 PUSH1 0x24 SHL PUSH2 0x599 DUP8 PUSH1 0x3 ADD SLOAD DUP8 PUSH1 0x0 ADD SLOAD PUSH2 0xE13 SWAP1 SWAP2 SWAP1 PUSH4 0xFFFFFFFF AND JUMP JUMPDEST SWAP1 PUSH2 0xE2B JUMP JUMPDEST SWAP1 POP PUSH2 0x5AB CALLER DUP3 PUSH2 0xE37 JUMP JUMPDEST DUP2 SLOAD PUSH2 0x5B7 SWAP1 DUP6 PUSH2 0xE1F JUMP JUMPDEST DUP1 DUP4 SSTORE PUSH1 0x3 DUP5 ADD SLOAD PUSH2 0x5DD SWAP2 PUSH11 0xC097CE7BC90715B34B9F1 PUSH1 0x24 SHL SWAP2 PUSH2 0x599 SWAP2 SWAP1 PUSH2 0xE13 JUMP JUMPDEST PUSH1 0x1 DUP4 ADD SSTORE DUP3 SLOAD PUSH2 0x5F8 SWAP1 PUSH1 0x1 PUSH1 0x1 PUSH1 0xA0 SHL SUB AND CALLER DUP7 PUSH2 0xED7 JUMP JUMPDEST DUP5 CALLER PUSH1 0x1 PUSH1 0x1 PUSH1 0xA0 SHL SUB AND PUSH32 0xF279E6A1F5E320CCA91135676D9CB6E44CA8A08C0B88342BCDB1144F6511B568 DUP7 PUSH1 0x40 MLOAD PUSH2 0x632 SWAP2 SWAP1 PUSH2 0x1508 JUMP JUMPDEST PUSH1 0x40 MLOAD DUP1 SWAP2 SUB SWAP1 LOG3 POP POP POP POP POP JUMP JUMPDEST PUSH1 0x7 SLOAD DUP2 JUMP JUMPDEST PUSH1 0x0 PUSH1 0x4 DUP3 DUP2 SLOAD DUP2 LT PUSH2 0x66A JUMPI PUSH4 0x4E487B71 PUSH1 0xE0 SHL PUSH1 0x0 MSTORE PUSH1 0x32 PUSH1 0x4 MSTORE PUSH1 0x24 PUSH1 0x0 REVERT JUMPDEST SWAP1 PUSH1 0x0 MSTORE PUSH1 0x20 PUSH1 0x0 KECCAK256 SWAP1 PUSH1 0x4 MUL ADD SWAP1 POP PUSH1 0x0 PUSH1 0x8 SLOAD NUMBER LT PUSH2 0x68D JUMPI PUSH1 0x8 SLOAD PUSH2 0x68F JUMP JUMPDEST NUMBER JUMPDEST SWAP1 POP DUP2 PUSH1 0x2 ADD SLOAD DUP2 GT PUSH2 0x6A3 JUMPI POP POP PUSH2 0x7BC JUMP JUMPDEST DUP2 SLOAD PUSH1 0x40 MLOAD PUSH4 0x70A08231 PUSH1 0xE0 SHL DUP2 MSTORE PUSH1 0x0 SWAP2 PUSH1 0x1 PUSH1 0x1 PUSH1 0xA0 SHL SUB AND SWAP1 PUSH4 0x70A08231 SWAP1 PUSH2 0x6D3 SWAP1 ADDRESS SWAP1 PUSH1 0x4 ADD PUSH2 0x1290 JUMP JUMPDEST PUSH1 0x20 PUSH1 0x40 MLOAD DUP1 DUP4 SUB DUP2 DUP7 DUP1 EXTCODESIZE ISZERO DUP1 ISZERO PUSH2 0x6EB JUMPI PUSH1 0x0 DUP1 REVERT JUMPDEST POP GAS STATICCALL ISZERO DUP1 ISZERO PUSH2 0x6FF JUMPI RETURNDATASIZE PUSH1 0x0 DUP1 RETURNDATACOPY RETURNDATASIZE PUSH1 0x0 REVERT JUMPDEST POP POP POP POP PUSH1 0x40 MLOAD RETURNDATASIZE PUSH1 0x1F NOT PUSH1 0x1F DUP3 ADD AND DUP3 ADD DUP1 PUSH1 0x40 MSTORE POP DUP2 ADD SWAP1 PUSH2 0x723 SWAP2 SWAP1 PUSH2 0x119E JUMP JUMPDEST SWAP1 POP DUP1 PUSH2 0x736 JUMPI POP PUSH1 0x2 SWAP1 SWAP2 ADD SSTORE PUSH2 0x7BC JUMP JUMPDEST PUSH1 0x0 PUSH2 0x74F DUP5 PUSH1 0x2 ADD SLOAD DUP5 PUSH2 0xE1F SWAP1 SWAP2 SWAP1 PUSH4 0xFFFFFFFF AND JUMP JUMPDEST SWAP1 POP PUSH1 0x0 PUSH2 0x77C PUSH1 0x6 SLOAD PUSH2 0x599 DUP8 PUSH1 0x1 ADD SLOAD PUSH2 0x776 PUSH1 0x3 SLOAD DUP8 PUSH2 0xE13 SWAP1 SWAP2 SWAP1 PUSH4 0xFFFFFFFF AND JUMP JUMPDEST SWAP1 PUSH2 0xE13 JUMP JUMPDEST SWAP1 POP PUSH2 0x7A8 PUSH2 0x79D DUP5 PUSH2 0x599 DUP5 PUSH11 0xC097CE7BC90715B34B9F1 PUSH1 0x24 SHL PUSH2 0xE13 JUMP JUMPDEST PUSH1 0x3 DUP8 ADD SLOAD SWAP1 PUSH2 0xE00 JUMP JUMPDEST PUSH1 0x3 DUP7 ADD SSTORE POP POP NUMBER PUSH1 0x2 SWAP1 SWAP4 ADD SWAP3 SWAP1 SWAP3 SSTORE POP POP JUMPDEST POP JUMP JUMPDEST PUSH1 0x0 PUSH1 0x4 DUP3 DUP2 SLOAD DUP2 LT PUSH2 0x7E2 JUMPI PUSH4 0x4E487B71 PUSH1 0xE0 SHL PUSH1 0x0 MSTORE PUSH1 0x32 PUSH1 0x4 MSTORE PUSH1 0x24 PUSH1 0x0 REVERT JUMPDEST PUSH1 0x0 SWAP2 DUP3 MSTORE PUSH1 0x20 DUP1 DUP4 KECCAK256 DUP6 DUP5 MSTORE PUSH1 0x5 DUP3 MSTORE PUSH1 0x40 DUP1 DUP6 KECCAK256 CALLER DUP1 DUP8 MSTORE SWAP4 MSTORE SWAP1 SWAP4 KECCAK256 DUP1 SLOAD PUSH1 0x4 SWAP1 SWAP4 MUL SWAP1 SWAP4 ADD DUP1 SLOAD SWAP1 SWAP5 POP PUSH2 0x827 SWAP3 PUSH1 0x1 PUSH1 0x1 PUSH1 0xA0 SHL SUB SWAP2 SWAP1 SWAP2 AND SWAP2 SWAP1 PUSH2 0xED7 JUMP JUMPDEST DUP1 SLOAD PUSH1 0x40 MLOAD DUP5 SWAP2 CALLER SWAP2 PUSH32 0xBB757047C2B5F3974FE26B7C10F732E7BCE710B0952A71082702781E62AE0595 SWAP2 PUSH2 0x85B SWAP2 PUSH2 0x1508 JUMP JUMPDEST PUSH1 0x40 MLOAD DUP1 SWAP2 SUB SWAP1 LOG3 PUSH1 0x0 DUP1 DUP3 SSTORE PUSH1 0x1 SWAP1 SWAP2 ADD SSTORE POP POP JUMP JUMPDEST PUSH1 0x2 SLOAD DUP2 JUMP JUMPDEST PUSH1 0x4 SLOAD PUSH1 0x0 JUMPDEST DUP2 DUP2 LT ISZERO PUSH2 0x89F JUMPI PUSH2 0x88F DUP2 PUSH2 0x647 JUMP JUMPDEST PUSH2 0x898 DUP2 PUSH2 0x15B9 JUMP JUMPDEST SWAP1 POP PUSH2 0x87E JUMP JUMPDEST POP POP JUMP JUMPDEST PUSH2 0x8AB PUSH2 0xDFC JUMP JUMPDEST PUSH1 0x1 PUSH1 0x1 PUSH1 0xA0 SHL SUB AND PUSH2 0x8BC PUSH2 0x9E3 JUMP JUMPDEST PUSH1 0x1 PUSH1 0x1 PUSH1 0xA0 SHL SUB AND EQ PUSH2 0x8E2 JUMPI PUSH1 0x40 MLOAD PUSH3 0x461BCD PUSH1 0xE5 SHL DUP2 MSTORE PUSH1 0x4 ADD PUSH2 0x367 SWAP1 PUSH2 0x13C6 JUMP JUMPDEST DUP1 ISZERO PUSH2 0x8F0 JUMPI PUSH2 0x8F0 PUSH2 0x878 JUMP JUMPDEST PUSH2 0x941 DUP3 PUSH2 0x93B PUSH1 0x4 DUP7 DUP2 SLOAD DUP2 LT PUSH2 0x918 JUMPI PUSH4 0x4E487B71 PUSH1 0xE0 SHL PUSH1 0x0 MSTORE PUSH1 0x32 PUSH1 0x4 MSTORE PUSH1 0x24 PUSH1 0x0 REVERT JUMPDEST SWAP1 PUSH1 0x0 MSTORE PUSH1 0x20 PUSH1 0x0 KECCAK256 SWAP1 PUSH1 0x4 MUL ADD PUSH1 0x1 ADD SLOAD PUSH1 0x6 SLOAD PUSH2 0xE1F SWAP1 SWAP2 SWAP1 PUSH4 0xFFFFFFFF AND JUMP JUMPDEST SWAP1 PUSH2 0xE00 JUMP JUMPDEST PUSH1 0x6 DUP2 SWAP1 SSTORE POP DUP2 PUSH1 0x4 DUP5 DUP2 SLOAD DUP2 LT PUSH2 0x969 JUMPI PUSH4 0x4E487B71 PUSH1 0xE0 SHL PUSH1 0x0 MSTORE PUSH1 0x32 PUSH1 0x4 MSTORE PUSH1 0x24 PUSH1 0x0 REVERT JUMPDEST SWAP1 PUSH1 0x0 MSTORE PUSH1 0x20 PUSH1 0x0 KECCAK256 SWAP1 PUSH1 0x4 MUL ADD PUSH1 0x1 ADD DUP2 SWAP1 SSTORE POP POP POP POP JUMP JUMPDEST PUSH2 0x98B PUSH2 0xDFC JUMP JUMPDEST PUSH1 0x1 PUSH1 0x1 PUSH1 0xA0 SHL SUB AND PUSH2 0x99C PUSH2 0x9E3 JUMP JUMPDEST PUSH1 0x1 PUSH1 0x1 PUSH1 0xA0 SHL SUB AND EQ PUSH2 0x9C2 JUMPI PUSH1 0x40 MLOAD PUSH3 0x461BCD PUSH1 0xE5 SHL DUP2 MSTORE PUSH1 0x4 ADD PUSH2 0x367 SWAP1 PUSH2 0x13C6 JUMP JUMPDEST PUSH2 0x9CC PUSH1 0x0 PUSH2 0xF32 JUMP JUMPDEST JUMP JUMPDEST PUSH1 0x1 SLOAD PUSH1 0x1 PUSH1 0x1 PUSH1 0xA0 SHL SUB AND DUP2 JUMP JUMPDEST PUSH1 0x3 SLOAD DUP2 JUMP JUMPDEST PUSH1 0x0 SLOAD PUSH1 0x1 PUSH1 0x1 PUSH1 0xA0 SHL SUB AND SWAP1 JUMP JUMPDEST PUSH1 0x5 PUSH1 0x20 SWAP1 DUP2 MSTORE PUSH1 0x0 SWAP3 DUP4 MSTORE PUSH1 0x40 DUP1 DUP5 KECCAK256 SWAP1 SWAP2 MSTORE SWAP1 DUP3 MSTORE SWAP1 KECCAK256 DUP1 SLOAD PUSH1 0x1 SWAP1 SWAP2 ADD SLOAD DUP3 JUMP JUMPDEST PUSH1 0x0 SWAP2 DUP3 MSTORE PUSH1 0x5 PUSH1 0x20 SWAP1 DUP2 MSTORE PUSH1 0x40 DUP1 DUP5 KECCAK256 PUSH1 0x1 PUSH1 0x1 PUSH1 0xA0 SHL SUB SWAP4 SWAP1 SWAP4 AND DUP5 MSTORE SWAP2 SWAP1 MSTORE SWAP1 KECCAK256 SLOAD SWAP1 JUMP JUMPDEST PUSH1 0x8 SLOAD NUMBER LT PUSH2 0xA5F JUMPI PUSH1 0x40 MLOAD PUSH3 0x461BCD PUSH1 0xE5 SHL DUP2 MSTORE PUSH1 0x4 ADD PUSH2 0x367 SWAP1 PUSH2 0x13FB JUMP JUMPDEST PUSH1 0x1 SLOAD PUSH2 0xA77 SWAP1 PUSH1 0x1 PUSH1 0x1 PUSH1 0xA0 SHL SUB AND CALLER ADDRESS DUP5 PUSH2 0xF82 JUMP JUMPDEST PUSH1 0x3 SLOAD PUSH2 0xA85 SWAP1 DUP3 SWAP1 PUSH2 0xE2B JUMP JUMPDEST PUSH1 0x8 PUSH1 0x0 DUP3 DUP3 SLOAD PUSH2 0xA96 SWAP2 SWAP1 PUSH2 0x151F JUMP JUMPDEST SWAP1 SWAP2 SSTORE POP POP POP JUMP JUMPDEST PUSH1 0x0 PUSH1 0x4 DUP4 DUP2 SLOAD DUP2 LT PUSH2 0xAC1 JUMPI PUSH4 0x4E487B71 PUSH1 0xE0 SHL PUSH1 0x0 MSTORE PUSH1 0x32 PUSH1 0x4 MSTORE PUSH1 0x24 PUSH1 0x0 REVERT JUMPDEST PUSH1 0x0 SWAP2 DUP3 MSTORE PUSH1 0x20 DUP1 DUP4 KECCAK256 DUP7 DUP5 MSTORE PUSH1 0x5 DUP3 MSTORE PUSH1 0x40 DUP1 DUP6 KECCAK256 CALLER DUP7 MSTORE SWAP1 SWAP3 MSTORE SWAP3 KECCAK256 PUSH1 0x4 SWAP1 SWAP2 MUL SWAP1 SWAP2 ADD SWAP2 POP PUSH2 0xAF2 DUP5 PUSH2 0x647 JUMP JUMPDEST DUP1 SLOAD ISZERO PUSH2 0xB3E JUMPI PUSH1 0x0 PUSH2 0xB30 DUP3 PUSH1 0x1 ADD SLOAD PUSH2 0x4E1 PUSH11 0xC097CE7BC90715B34B9F1 PUSH1 0x24 SHL PUSH2 0x599 DUP8 PUSH1 0x3 ADD SLOAD DUP8 PUSH1 0x0 ADD SLOAD PUSH2 0xE13 SWAP1 SWAP2 SWAP1 PUSH4 0xFFFFFFFF AND JUMP JUMPDEST SWAP1 POP PUSH2 0xB3C CALLER DUP3 PUSH2 0xE37 JUMP JUMPDEST POP JUMPDEST DUP2 SLOAD PUSH2 0xB55 SWAP1 PUSH1 0x1 PUSH1 0x1 PUSH1 0xA0 SHL SUB AND CALLER ADDRESS DUP7 PUSH2 0xF82 JUMP JUMPDEST DUP1 SLOAD PUSH2 0xB61 SWAP1 DUP5 PUSH2 0xE00 JUMP JUMPDEST DUP1 DUP3 SSTORE PUSH1 0x3 DUP4 ADD SLOAD PUSH2 0xB87 SWAP2 PUSH11 0xC097CE7BC90715B34B9F1 PUSH1 0x24 SHL SWAP2 PUSH2 0x599 SWAP2 SWAP1 PUSH2 0xE13 JUMP JUMPDEST PUSH1 0x1 DUP3 ADD SSTORE PUSH1 0x40 MLOAD DUP5 SWAP1 CALLER SWAP1 PUSH32 0x90890809C654F11D6E72A28FA60149770A0D11EC6C92319D6CEB2BB0A4EA1A15 SWAP1 PUSH2 0xBC0 SWAP1 DUP8 SWAP1 PUSH2 0x1508 JUMP JUMPDEST PUSH1 0x40 MLOAD DUP1 SWAP2 SUB SWAP1 LOG3 POP POP POP POP JUMP JUMPDEST PUSH1 0x0 DUP1 PUSH1 0x4 DUP5 DUP2 SLOAD DUP2 LT PUSH2 0xBF2 JUMPI PUSH4 0x4E487B71 PUSH1 0xE0 SHL PUSH1 0x0 MSTORE PUSH1 0x32 PUSH1 0x4 MSTORE PUSH1 0x24 PUSH1 0x0 REVERT JUMPDEST PUSH1 0x0 SWAP2 DUP3 MSTORE PUSH1 0x20 DUP1 DUP4 KECCAK256 DUP8 DUP5 MSTORE PUSH1 0x5 DUP3 MSTORE PUSH1 0x40 DUP1 DUP6 KECCAK256 PUSH1 0x1 PUSH1 0x1 PUSH1 0xA0 SHL SUB DUP10 DUP2 AND DUP8 MSTORE SWAP4 MSTORE DUP1 DUP6 KECCAK256 PUSH1 0x4 SWAP5 DUP6 MUL SWAP1 SWAP3 ADD PUSH1 0x3 DUP2 ADD SLOAD DUP2 SLOAD SWAP3 MLOAD PUSH4 0x70A08231 PUSH1 0xE0 SHL DUP2 MSTORE SWAP2 SWAP8 POP SWAP3 SWAP6 SWAP3 SWAP5 SWAP3 SWAP4 SWAP2 SWAP1 SWAP2 AND SWAP2 PUSH4 0x70A08231 SWAP2 PUSH2 0xC55 SWAP2 ADDRESS SWAP2 ADD PUSH2 0x1290 JUMP JUMPDEST PUSH1 0x20 PUSH1 0x40 MLOAD DUP1 DUP4 SUB DUP2 DUP7 DUP1 EXTCODESIZE ISZERO DUP1 ISZERO PUSH2 0xC6D JUMPI PUSH1 0x0 DUP1 REVERT JUMPDEST POP GAS STATICCALL ISZERO DUP1 ISZERO PUSH2 0xC81 JUMPI RETURNDATASIZE PUSH1 0x0 DUP1 RETURNDATACOPY RETURNDATASIZE PUSH1 0x0 REVERT JUMPDEST POP POP POP POP PUSH1 0x40 MLOAD RETURNDATASIZE PUSH1 0x1F NOT PUSH1 0x1F DUP3 ADD AND DUP3 ADD DUP1 PUSH1 0x40 MSTORE POP DUP2 ADD SWAP1 PUSH2 0xCA5 SWAP2 SWAP1 PUSH2 0x119E JUMP JUMPDEST SWAP1 POP PUSH1 0x0 PUSH1 0x8 SLOAD NUMBER LT PUSH2 0xCBA JUMPI PUSH1 0x8 SLOAD PUSH2 0xCBC JUMP JUMPDEST NUMBER JUMPDEST SWAP1 POP DUP5 PUSH1 0x2 ADD SLOAD DUP2 GT DUP1 ISZERO PUSH2 0xCD4 JUMPI POP DUP5 PUSH1 0x2 ADD SLOAD NUMBER GT JUMPDEST DUP1 ISZERO PUSH2 0xCDF JUMPI POP DUP2 ISZERO ISZERO JUMPDEST ISZERO PUSH2 0xD51 JUMPI PUSH1 0x0 PUSH2 0xCFD DUP7 PUSH1 0x2 ADD SLOAD DUP4 PUSH2 0xE1F SWAP1 SWAP2 SWAP1 PUSH4 0xFFFFFFFF AND JUMP JUMPDEST SWAP1 POP PUSH1 0x0 PUSH2 0xD24 PUSH1 0x6 SLOAD PUSH2 0x599 DUP10 PUSH1 0x1 ADD SLOAD PUSH2 0x776 PUSH1 0x3 SLOAD DUP8 PUSH2 0xE13 SWAP1 SWAP2 SWAP1 PUSH4 0xFFFFFFFF AND JUMP JUMPDEST SWAP1 POP PUSH2 0xD4C PUSH2 0xD45 DUP6 PUSH2 0x599 DUP5 PUSH11 0xC097CE7BC90715B34B9F1 PUSH1 0x24 SHL PUSH2 0xE13 JUMP JUMPDEST DUP7 SWAP1 PUSH2 0xE00 JUMP JUMPDEST SWAP5 POP POP POP JUMPDEST PUSH2 0xD82 DUP5 PUSH1 0x1 ADD SLOAD PUSH2 0x4E1 PUSH11 0xC097CE7BC90715B34B9F1 PUSH1 0x24 SHL PUSH2 0x599 DUP8 DUP10 PUSH1 0x0 ADD SLOAD PUSH2 0xE13 SWAP1 SWAP2 SWAP1 PUSH4 0xFFFFFFFF AND JUMP JUMPDEST SWAP9 SWAP8 POP POP POP POP POP POP POP POP JUMP JUMPDEST PUSH2 0xD96 PUSH2 0xDFC JUMP JUMPDEST PUSH1 0x1 PUSH1 0x1 PUSH1 0xA0 SHL SUB AND PUSH2 0xDA7 PUSH2 0x9E3 JUMP JUMPDEST PUSH1 0x1 PUSH1 0x1 PUSH1 0xA0 SHL SUB AND EQ PUSH2 0xDCD JUMPI PUSH1 0x40 MLOAD PUSH3 0x461BCD PUSH1 0xE5 SHL DUP2 MSTORE PUSH1 0x4 ADD PUSH2 0x367 SWAP1 PUSH2 0x13C6 JUMP JUMPDEST PUSH1 0x1 PUSH1 0x1 PUSH1 0xA0 SHL SUB DUP2 AND PUSH2 0xDF3 JUMPI PUSH1 0x40 MLOAD PUSH3 0x461BCD PUSH1 0xE5 SHL DUP2 MSTORE PUSH1 0x4 ADD PUSH2 0x367 SWAP1 PUSH2 0x133A JUMP JUMPDEST PUSH2 0x7BC DUP2 PUSH2 0xF32 JUMP JUMPDEST CALLER SWAP1 JUMP JUMPDEST PUSH1 0x0 PUSH2 0xE0C DUP3 DUP5 PUSH2 0x151F JUMP JUMPDEST SWAP4 SWAP3 POP POP POP JUMP JUMPDEST PUSH1 0x0 PUSH2 0xE0C DUP3 DUP5 PUSH2 0x1557 JUMP JUMPDEST PUSH1 0x0 PUSH2 0xE0C DUP3 DUP5 PUSH2 0x1576 JUMP JUMPDEST PUSH1 0x0 PUSH2 0xE0C DUP3 DUP5 PUSH2 0x1537 JUMP JUMPDEST PUSH1 0x1 SLOAD PUSH1 0x40 MLOAD PUSH4 0xA9059CBB PUSH1 0xE0 SHL DUP2 MSTORE PUSH1 0x1 PUSH1 0x1 PUSH1 0xA0 SHL SUB SWAP1 SWAP2 AND SWAP1 PUSH4 0xA9059CBB SWAP1 PUSH2 0xE69 SWAP1 DUP6 SWAP1 DUP6 SWAP1 PUSH1 0x4 ADD PUSH2 0x12C8 JUMP JUMPDEST PUSH1 0x20 PUSH1 0x40 MLOAD DUP1 DUP4 SUB DUP2 PUSH1 0x0 DUP8 DUP1 EXTCODESIZE ISZERO DUP1 ISZERO PUSH2 0xE83 JUMPI PUSH1 0x0 DUP1 REVERT JUMPDEST POP GAS CALL ISZERO DUP1 ISZERO PUSH2 0xE97 JUMPI RETURNDATASIZE PUSH1 0x0 DUP1 RETURNDATACOPY RETURNDATASIZE PUSH1 0x0 REVERT JUMPDEST POP POP POP POP PUSH1 0x40 MLOAD RETURNDATASIZE PUSH1 0x1F NOT PUSH1 0x1F DUP3 ADD AND DUP3 ADD DUP1 PUSH1 0x40 MSTORE POP DUP2 ADD SWAP1 PUSH2 0xEBB SWAP2 SWAP1 PUSH2 0x116A JUMP JUMPDEST POP DUP1 PUSH1 0x2 PUSH1 0x0 DUP3 DUP3 SLOAD PUSH2 0xECE SWAP2 SWAP1 PUSH2 0x151F JUMP JUMPDEST SWAP1 SWAP2 SSTORE POP POP POP POP JUMP JUMPDEST PUSH2 0xF2D DUP4 PUSH4 0xA9059CBB PUSH1 0xE0 SHL DUP5 DUP5 PUSH1 0x40 MLOAD PUSH1 0x24 ADD PUSH2 0xEF6 SWAP3 SWAP2 SWAP1 PUSH2 0x12C8 JUMP JUMPDEST PUSH1 0x40 DUP1 MLOAD PUSH1 0x1F NOT DUP2 DUP5 SUB ADD DUP2 MSTORE SWAP2 SWAP1 MSTORE PUSH1 0x20 DUP2 ADD DUP1 MLOAD PUSH1 0x1 PUSH1 0x1 PUSH1 0xE0 SHL SUB AND PUSH1 0x1 PUSH1 0x1 PUSH1 0xE0 SHL SUB NOT SWAP1 SWAP4 AND SWAP3 SWAP1 SWAP3 OR SWAP1 SWAP2 MSTORE PUSH2 0xFA9 JUMP JUMPDEST POP POP POP JUMP JUMPDEST PUSH1 0x0 DUP1 SLOAD PUSH1 0x1 PUSH1 0x1 PUSH1 0xA0 SHL SUB DUP4 DUP2 AND PUSH1 0x1 PUSH1 0x1 PUSH1 0xA0 SHL SUB NOT DUP4 AND DUP2 OR DUP5 SSTORE PUSH1 0x40 MLOAD SWAP2 SWAP1 SWAP3 AND SWAP3 DUP4 SWAP2 PUSH32 0x8BE0079C531659141344CD1FD0A4F28419497F9722A3DAAFE3B4186F6B6457E0 SWAP2 SWAP1 LOG3 POP POP JUMP JUMPDEST PUSH2 0xFA3 DUP5 PUSH4 0x23B872DD PUSH1 0xE0 SHL DUP6 DUP6 DUP6 PUSH1 0x40 MLOAD PUSH1 0x24 ADD PUSH2 0xEF6 SWAP4 SWAP3 SWAP2 SWAP1 PUSH2 0x12A4 JUMP JUMPDEST POP POP POP POP JUMP JUMPDEST PUSH1 0x0 PUSH2 0xFFE DUP3 PUSH1 0x40 MLOAD DUP1 PUSH1 0x40 ADD PUSH1 0x40 MSTORE DUP1 PUSH1 0x20 DUP2 MSTORE PUSH1 0x20 ADD PUSH32 0x5361666545524332303A206C6F772D6C6576656C2063616C6C206661696C6564 DUP2 MSTORE POP DUP6 PUSH1 0x1 PUSH1 0x1 PUSH1 0xA0 SHL SUB AND PUSH2 0x1038 SWAP1 SWAP3 SWAP2 SWAP1 PUSH4 0xFFFFFFFF AND JUMP JUMPDEST DUP1 MLOAD SWAP1 SWAP2 POP ISZERO PUSH2 0xF2D JUMPI DUP1 DUP1 PUSH1 0x20 ADD SWAP1 MLOAD DUP2 ADD SWAP1 PUSH2 0x101C SWAP2 SWAP1 PUSH2 0x116A JUMP JUMPDEST PUSH2 0xF2D JUMPI PUSH1 0x40 MLOAD PUSH3 0x461BCD PUSH1 0xE5 SHL DUP2 MSTORE PUSH1 0x4 ADD PUSH2 0x367 SWAP1 PUSH2 0x14BE JUMP JUMPDEST PUSH1 0x60 PUSH2 0x1047 DUP5 DUP5 PUSH1 0x0 DUP6 PUSH2 0x104F JUMP JUMPDEST SWAP5 SWAP4 POP POP POP POP JUMP JUMPDEST PUSH1 0x60 DUP3 SELFBALANCE LT ISZERO PUSH2 0x1071 JUMPI PUSH1 0x40 MLOAD PUSH3 0x461BCD PUSH1 0xE5 SHL DUP2 MSTORE PUSH1 0x4 ADD PUSH2 0x367 SWAP1 PUSH2 0x1380 JUMP JUMPDEST PUSH2 0x107A DUP6 PUSH2 0x110F JUMP JUMPDEST PUSH2 0x1096 JUMPI PUSH1 0x40 MLOAD PUSH3 0x461BCD PUSH1 0xE5 SHL DUP2 MSTORE PUSH1 0x4 ADD PUSH2 0x367 SWAP1 PUSH2 0x1487 JUMP JUMPDEST PUSH1 0x0 DUP1 DUP7 PUSH1 0x1 PUSH1 0x1 PUSH1 0xA0 SHL SUB AND DUP6 DUP8 PUSH1 0x40 MLOAD PUSH2 0x10B2 SWAP2 SWAP1 PUSH2 0x1274 JUMP JUMPDEST PUSH1 0x0 PUSH1 0x40 MLOAD DUP1 DUP4 SUB DUP2 DUP6 DUP8 GAS CALL SWAP3 POP POP POP RETURNDATASIZE DUP1 PUSH1 0x0 DUP2 EQ PUSH2 0x10EF JUMPI PUSH1 0x40 MLOAD SWAP2 POP PUSH1 0x1F NOT PUSH1 0x3F RETURNDATASIZE ADD AND DUP3 ADD PUSH1 0x40 MSTORE RETURNDATASIZE DUP3 MSTORE RETURNDATASIZE PUSH1 0x0 PUSH1 0x20 DUP5 ADD RETURNDATACOPY PUSH2 0x10F4 JUMP JUMPDEST PUSH1 0x60 SWAP2 POP JUMPDEST POP SWAP2 POP SWAP2 POP PUSH2 0x1104 DUP3 DUP3 DUP7 PUSH2 0x1115 JUMP JUMPDEST SWAP8 SWAP7 POP POP POP POP POP POP POP JUMP JUMPDEST EXTCODESIZE ISZERO ISZERO SWAP1 JUMP JUMPDEST PUSH1 0x60 DUP4 ISZERO PUSH2 0x1124 JUMPI POP DUP2 PUSH2 0xE0C JUMP JUMPDEST DUP3 MLOAD ISZERO PUSH2 0x1134 JUMPI DUP3 MLOAD DUP1 DUP5 PUSH1 0x20 ADD REVERT JUMPDEST DUP2 PUSH1 0x40 MLOAD PUSH3 0x461BCD PUSH1 0xE5 SHL DUP2 MSTORE PUSH1 0x4 ADD PUSH2 0x367 SWAP2 SWAP1 PUSH2 0x1307 JUMP JUMPDEST PUSH1 0x0 PUSH1 0x20 DUP3 DUP5 SUB SLT ISZERO PUSH2 0x115F JUMPI DUP1 DUP2 REVERT JUMPDEST DUP2 CALLDATALOAD PUSH2 0xE0C DUP2 PUSH2 0x15EA JUMP JUMPDEST PUSH1 0x0 PUSH1 0x20 DUP3 DUP5 SUB SLT ISZERO PUSH2 0x117B JUMPI DUP1 DUP2 REVERT JUMPDEST DUP2 MLOAD PUSH2 0xE0C DUP2 PUSH2 0x15FF JUMP JUMPDEST PUSH1 0x0 PUSH1 0x20 DUP3 DUP5 SUB SLT ISZERO PUSH2 0x1197 JUMPI DUP1 DUP2 REVERT JUMPDEST POP CALLDATALOAD SWAP2 SWAP1 POP JUMP JUMPDEST PUSH1 0x0 PUSH1 0x20 DUP3 DUP5 SUB SLT ISZERO PUSH2 0x11AF JUMPI DUP1 DUP2 REVERT JUMPDEST POP MLOAD SWAP2 SWAP1 POP JUMP JUMPDEST PUSH1 0x0 DUP1 PUSH1 0x40 DUP4 DUP6 SUB SLT ISZERO PUSH2 0x11C8 JUMPI DUP1 DUP2 REVERT JUMPDEST DUP3 CALLDATALOAD SWAP2 POP PUSH1 0x20 DUP4 ADD CALLDATALOAD PUSH2 0x11DA DUP2 PUSH2 0x15EA JUMP JUMPDEST DUP1 SWAP2 POP POP SWAP3 POP SWAP3 SWAP1 POP JUMP JUMPDEST PUSH1 0x0 DUP1 PUSH1 0x0 PUSH1 0x60 DUP5 DUP7 SUB SLT ISZERO PUSH2 0x11F9 JUMPI DUP1 DUP2 REVERT JUMPDEST DUP4 CALLDATALOAD SWAP3 POP PUSH1 0x20 DUP5 ADD CALLDATALOAD PUSH2 0x120B DUP2 PUSH2 0x15EA JUMP JUMPDEST SWAP2 POP PUSH1 0x40 DUP5 ADD CALLDATALOAD PUSH2 0x121B DUP2 PUSH2 0x15FF JUMP JUMPDEST DUP1 SWAP2 POP POP SWAP3 POP SWAP3 POP SWAP3 JUMP JUMPDEST PUSH1 0x0 DUP1 PUSH1 0x40 DUP4 DUP6 SUB SLT ISZERO PUSH2 0x1238 JUMPI DUP2 DUP3 REVERT JUMPDEST POP POP DUP1 CALLDATALOAD SWAP3 PUSH1 0x20 SWAP1 SWAP2 ADD CALLDATALOAD SWAP2 POP JUMP JUMPDEST PUSH1 0x0 DUP1 PUSH1 0x0 PUSH1 0x60 DUP5 DUP7 SUB SLT ISZERO PUSH2 0x125B JUMPI DUP3 DUP4 REVERT JUMPDEST DUP4 CALLDATALOAD SWAP3 POP PUSH1 0x20 DUP5 ADD CALLDATALOAD SWAP2 POP PUSH1 0x40 DUP5 ADD CALLDATALOAD PUSH2 0x121B DUP2 PUSH2 0x15FF JUMP JUMPDEST PUSH1 0x0 DUP3 MLOAD PUSH2 0x1286 DUP2 DUP5 PUSH1 0x20 DUP8 ADD PUSH2 0x158D JUMP JUMPDEST SWAP2 SWAP1 SWAP2 ADD SWAP3 SWAP2 POP POP JUMP JUMPDEST PUSH1 0x1 PUSH1 0x1 PUSH1 0xA0 SHL SUB SWAP2 SWAP1 SWAP2 AND DUP2 MSTORE PUSH1 0x20 ADD SWAP1 JUMP JUMPDEST PUSH1 0x1 PUSH1 0x1 PUSH1 0xA0 SHL SUB SWAP4 DUP5 AND DUP2 MSTORE SWAP2 SWAP1 SWAP3 AND PUSH1 0x20 DUP3 ADD MSTORE PUSH1 0x40 DUP2 ADD SWAP2 SWAP1 SWAP2 MSTORE PUSH1 0x60 ADD SWAP1 JUMP JUMPDEST PUSH1 0x1 PUSH1 0x1 PUSH1 0xA0 SHL SUB SWAP3 SWAP1 SWAP3 AND DUP3 MSTORE PUSH1 0x20 DUP3 ADD MSTORE PUSH1 0x40 ADD SWAP1 JUMP JUMPDEST PUSH1 0x1 PUSH1 0x1 PUSH1 0xA0 SHL SUB SWAP5 SWAP1 SWAP5 AND DUP5 MSTORE PUSH1 0x20 DUP5 ADD SWAP3 SWAP1 SWAP3 MSTORE PUSH1 0x40 DUP4 ADD MSTORE PUSH1 0x60 DUP3 ADD MSTORE PUSH1 0x80 ADD SWAP1 JUMP JUMPDEST PUSH1 0x0 PUSH1 0x20 DUP3 MSTORE DUP3 MLOAD DUP1 PUSH1 0x20 DUP5 ADD MSTORE PUSH2 0x1326 DUP2 PUSH1 0x40 DUP6 ADD PUSH1 0x20 DUP8 ADD PUSH2 0x158D JUMP JUMPDEST PUSH1 0x1F ADD PUSH1 0x1F NOT AND SWAP2 SWAP1 SWAP2 ADD PUSH1 0x40 ADD SWAP3 SWAP2 POP POP JUMP JUMPDEST PUSH1 0x20 DUP1 DUP3 MSTORE PUSH1 0x26 SWAP1 DUP3 ADD MSTORE PUSH32 0x4F776E61626C653A206E6577206F776E657220697320746865207A65726F2061 PUSH1 0x40 DUP3 ADD MSTORE PUSH6 0x646472657373 PUSH1 0xD0 SHL PUSH1 0x60 DUP3 ADD MSTORE PUSH1 0x80 ADD SWAP1 JUMP JUMPDEST PUSH1 0x20 DUP1 DUP3 MSTORE PUSH1 0x26 SWAP1 DUP3 ADD MSTORE PUSH32 0x416464726573733A20696E73756666696369656E742062616C616E636520666F PUSH1 0x40 DUP3 ADD MSTORE PUSH6 0x1C8818D85B1B PUSH1 0xD2 SHL PUSH1 0x60 DUP3 ADD MSTORE PUSH1 0x80 ADD SWAP1 JUMP JUMPDEST PUSH1 0x20 DUP1 DUP3 MSTORE DUP2 DUP2 ADD MSTORE PUSH32 0x4F776E61626C653A2063616C6C6572206973206E6F7420746865206F776E6572 PUSH1 0x40 DUP3 ADD MSTORE PUSH1 0x60 ADD SWAP1 JUMP JUMPDEST PUSH1 0x20 DUP1 DUP3 MSTORE PUSH1 0x22 SWAP1 DUP3 ADD MSTORE PUSH32 0x66756E643A20746F6F206C6174652C20746865206661726D20697320636C6F73 PUSH1 0x40 DUP3 ADD MSTORE PUSH2 0x1959 PUSH1 0xF2 SHL PUSH1 0x60 DUP3 ADD MSTORE PUSH1 0x80 ADD SWAP1 JUMP JUMPDEST PUSH1 0x20 DUP1 DUP3 MSTORE PUSH1 0x2A SWAP1 DUP3 ADD MSTORE PUSH32 0x77697468647261773A2063616E2774207769746864726177206D6F7265207468 PUSH1 0x40 DUP3 ADD MSTORE PUSH10 0x185B8819195C1BDCDA5D PUSH1 0xB2 SHL PUSH1 0x60 DUP3 ADD MSTORE PUSH1 0x80 ADD SWAP1 JUMP JUMPDEST PUSH1 0x20 DUP1 DUP3 MSTORE PUSH1 0x1D SWAP1 DUP3 ADD MSTORE PUSH32 0x416464726573733A2063616C6C20746F206E6F6E2D636F6E7472616374000000 PUSH1 0x40 DUP3 ADD MSTORE PUSH1 0x60 ADD SWAP1 JUMP JUMPDEST PUSH1 0x20 DUP1 DUP3 MSTORE PUSH1 0x2A SWAP1 DUP3 ADD MSTORE PUSH32 0x5361666545524332303A204552433230206F7065726174696F6E20646964206E PUSH1 0x40 DUP3 ADD MSTORE PUSH10 0x1BDD081CDD58D8D95959 PUSH1 0xB2 SHL PUSH1 0x60 DUP3 ADD MSTORE PUSH1 0x80 ADD SWAP1 JUMP JUMPDEST SWAP1 DUP2 MSTORE PUSH1 0x20 ADD SWAP1 JUMP JUMPDEST SWAP2 DUP3 MSTORE PUSH1 0x20 DUP3 ADD MSTORE PUSH1 0x40 ADD SWAP1 JUMP JUMPDEST PUSH1 0x0 DUP3 NOT DUP3 GT ISZERO PUSH2 0x1532 JUMPI PUSH2 0x1532 PUSH2 0x15D4 JUMP JUMPDEST POP ADD SWAP1 JUMP JUMPDEST PUSH1 0x0 DUP3 PUSH2 0x1552 JUMPI PUSH4 0x4E487B71 PUSH1 0xE0 SHL DUP2 MSTORE PUSH1 0x12 PUSH1 0x4 MSTORE PUSH1 0x24 DUP2 REVERT JUMPDEST POP DIV SWAP1 JUMP JUMPDEST PUSH1 0x0 DUP2 PUSH1 0x0 NOT DIV DUP4 GT DUP3 ISZERO ISZERO AND ISZERO PUSH2 0x1571 JUMPI PUSH2 0x1571 PUSH2 0x15D4 JUMP JUMPDEST POP MUL SWAP1 JUMP JUMPDEST PUSH1 0x0 DUP3 DUP3 LT ISZERO PUSH2 0x1588 JUMPI PUSH2 0x1588 PUSH2 0x15D4 JUMP JUMPDEST POP SUB SWAP1 JUMP JUMPDEST PUSH1 0x0 JUMPDEST DUP4 DUP2 LT ISZERO PUSH2 0x15A8 JUMPI DUP2 DUP2 ADD MLOAD DUP4 DUP3 ADD MSTORE PUSH1 0x20 ADD PUSH2 0x1590 JUMP JUMPDEST DUP4 DUP2 GT ISZERO PUSH2 0xFA3 JUMPI POP POP PUSH1 0x0 SWAP2 ADD MSTORE JUMP JUMPDEST PUSH1 0x0 PUSH1 0x0 NOT DUP3 EQ ISZERO PUSH2 0x15CD JUMPI PUSH2 0x15CD PUSH2 0x15D4 JUMP JUMPDEST POP PUSH1 0x1 ADD SWAP1 JUMP JUMPDEST PUSH4 0x4E487B71 PUSH1 0xE0 SHL PUSH1 0x0 MSTORE PUSH1 0x11 PUSH1 0x4 MSTORE PUSH1 0x24 PUSH1 0x0 REVERT JUMPDEST PUSH1 0x1 PUSH1 0x1 PUSH1 0xA0 SHL SUB DUP2 AND DUP2 EQ PUSH2 0x7BC JUMPI PUSH1 0x0 DUP1 REVERT JUMPDEST DUP1 ISZERO ISZERO DUP2 EQ PUSH2 0x7BC JUMPI PUSH1 0x0 DUP1 REVERT INVALID LOG2 PUSH5 0x6970667358 0x22 SLT KECCAK256 EXTCODESIZE 0xD3 DUP9 DELEGATECALL DUP1 COINBASE PUSH8 0x68A4F71082583902 RETURNDATACOPY 0xEA 0xEB 0xD MSTORE 0x4B CHAINID LOG1 0xE3 SAR 0xF8 0xC6 0xF7 EXTCODESIZE CHAINID REVERT DUP12 PUSH5 0x736F6C6343 STOP ADDMOD STOP STOP CALLER "
		},
		"gasEstimates": {
			"creation": {
				"codeDepositCost": "1139800",
				"executionCost": "infinite",
				"totalCost": "infinite"
			},
			"external": {
				"add(uint256,address,bool)": "infinite",
				"deposit(uint256,uint256)": "infinite",
				"deposited(uint256,address)": "1417",
				"emergencyWithdraw(uint256)": "infinite",
				"endBlock()": "1074",
				"erc20()": "1159",
				"fund(uint256)": "infinite",
				"massUpdatePools()": "infinite",
				"owner()": "1203",
				"paidOut()": "1161",
				"pending(uint256,address)": "infinite",
				"poolInfo(uint256)": "4628",
				"poolLength()": "1053",
				"renounceOwnership()": "23571",
				"rewardPerBlock()": "1139",
				"set(uint256,uint256,bool)": "infinite",
				"startBlock()": "1095",
				"totalAllocPoint()": "1118",
				"totalPending()": "infinite",
				"transferOwnership(address)": "infinite",
				"updatePool(uint256)": "infinite",
				"userInfo(uint256,address)": "2204",
				"withdraw(uint256,uint256)": "infinite"
			},
			"internal": {
				"erc20Transfer(address,uint256)": "infinite"
			}
		},
		"methodIdentifiers": {
			"add(uint256,address,bool)": "1eaaa045",
			"deposit(uint256,uint256)": "e2bbb158",
			"deposited(uint256,address)": "a2383106",
			"emergencyWithdraw(uint256)": "5312ea8e",
			"endBlock()": "083c6323",
			"erc20()": "785e9e86",
			"fund(uint256)": "ca1d209d",
			"massUpdatePools()": "630b5ba1",
			"owner()": "8da5cb5b",
			"paidOut()": "5c76ca2d",
			"pending(uint256,address)": "e4c75c27",
			"poolInfo(uint256)": "1526fe27",
			"poolLength()": "081e3eda",
			"renounceOwnership()": "715018a6",
			"rewardPerBlock()": "8ae39cac",
			"set(uint256,uint256,bool)": "64482f79",
			"startBlock()": "48cd4cb1",
			"totalAllocPoint()": "17caf6f1",
			"totalPending()": "3f90916a",
			"transferOwnership(address)": "f2fde38b",
			"updatePool(uint256)": "51eb05a6",
			"userInfo(uint256,address)": "93f1a40b",
			"withdraw(uint256,uint256)": "441a3e70"
		}
	},
	"abi": [
		{
			"inputs": [
				{
					"internalType": "contract IERC20",
					"name": "_erc20",
					"type": "address"
				},
				{
					"internalType": "uint256",
					"name": "_rewardPerBlock",
					"type": "uint256"
				},
				{
					"internalType": "uint256",
					"name": "_startBlock",
					"type": "uint256"
				}
			],
			"stateMutability": "nonpayable",
			"type": "constructor"
		},
		{
			"anonymous": false,
			"inputs": [
				{
					"indexed": true,
					"internalType": "address",
					"name": "user",
					"type": "address"
				},
				{
					"indexed": true,
					"internalType": "uint256",
					"name": "pid",
					"type": "uint256"
				},
				{
					"indexed": false,
					"internalType": "uint256",
					"name": "amount",
					"type": "uint256"
				}
			],
			"name": "Deposit",
			"type": "event"
		},
		{
			"anonymous": false,
			"inputs": [
				{
					"indexed": true,
					"internalType": "address",
					"name": "user",
					"type": "address"
				},
				{
					"indexed": true,
					"internalType": "uint256",
					"name": "pid",
					"type": "uint256"
				},
				{
					"indexed": false,
					"internalType": "uint256",
					"name": "amount",
					"type": "uint256"
				}
			],
			"name": "EmergencyWithdraw",
			"type": "event"
		},
		{
			"anonymous": false,
			"inputs": [
				{
					"indexed": true,
					"internalType": "address",
					"name": "previousOwner",
					"type": "address"
				},
				{
					"indexed": true,
					"internalType": "address",
					"name": "newOwner",
					"type": "address"
				}
			],
			"name": "OwnershipTransferred",
			"type": "event"
		},
		{
			"anonymous": false,
			"inputs": [
				{
					"indexed": true,
					"internalType": "address",
					"name": "user",
					"type": "address"
				},
				{
					"indexed": true,
					"internalType": "uint256",
					"name": "pid",
					"type": "uint256"
				},
				{
					"indexed": false,
					"internalType": "uint256",
					"name": "amount",
					"type": "uint256"
				}
			],
			"name": "Withdraw",
			"type": "event"
		},
		{
			"inputs": [
				{
					"internalType": "uint256",
					"name": "_allocPoint",
					"type": "uint256"
				},
				{
					"internalType": "contract IERC20",
					"name": "_lpToken",
					"type": "address"
				},
				{
					"internalType": "bool",
					"name": "_withUpdate",
					"type": "bool"
				}
			],
			"name": "add",
			"outputs": [],
			"stateMutability": "nonpayable",
			"type": "function"
		},
		{
			"inputs": [
				{
					"internalType": "uint256",
					"name": "_pid",
					"type": "uint256"
				},
				{
					"internalType": "uint256",
					"name": "_amount",
					"type": "uint256"
				}
			],
			"name": "deposit",
			"outputs": [],
			"stateMutability": "nonpayable",
			"type": "function"
		},
		{
			"inputs": [
				{
					"internalType": "uint256",
					"name": "_pid",
					"type": "uint256"
				},
				{
					"internalType": "address",
					"name": "_user",
					"type": "address"
				}
			],
			"name": "deposited",
			"outputs": [
				{
					"internalType": "uint256",
					"name": "",
					"type": "uint256"
				}
			],
			"stateMutability": "view",
			"type": "function"
		},
		{
			"inputs": [
				{
					"internalType": "uint256",
					"name": "_pid",
					"type": "uint256"
				}
			],
			"name": "emergencyWithdraw",
			"outputs": [],
			"stateMutability": "nonpayable",
			"type": "function"
		},
		{
			"inputs": [],
			"name": "endBlock",
			"outputs": [
				{
					"internalType": "uint256",
					"name": "",
					"type": "uint256"
				}
			],
			"stateMutability": "view",
			"type": "function"
		},
		{
			"inputs": [],
			"name": "erc20",
			"outputs": [
				{
					"internalType": "contract IERC20",
					"name": "",
					"type": "address"
				}
			],
			"stateMutability": "view",
			"type": "function"
		},
		{
			"inputs": [
				{
					"internalType": "uint256",
					"name": "_amount",
					"type": "uint256"
				}
			],
			"name": "fund",
			"outputs": [],
			"stateMutability": "nonpayable",
			"type": "function"
		},
		{
			"inputs": [],
			"name": "massUpdatePools",
			"outputs": [],
			"stateMutability": "nonpayable",
			"type": "function"
		},
		{
			"inputs": [],
			"name": "owner",
			"outputs": [
				{
					"internalType": "address",
					"name": "",
					"type": "address"
				}
			],
			"stateMutability": "view",
			"type": "function"
		},
		{
			"inputs": [],
			"name": "paidOut",
			"outputs": [
				{
					"internalType": "uint256",
					"name": "",
					"type": "uint256"
				}
			],
			"stateMutability": "view",
			"type": "function"
		},
		{
			"inputs": [
				{
					"internalType": "uint256",
					"name": "_pid",
					"type": "uint256"
				},
				{
					"internalType": "address",
					"name": "_user",
					"type": "address"
				}
			],
			"name": "pending",
			"outputs": [
				{
					"internalType": "uint256",
					"name": "",
					"type": "uint256"
				}
			],
			"stateMutability": "view",
			"type": "function"
		},
		{
			"inputs": [
				{
					"internalType": "uint256",
					"name": "",
					"type": "uint256"
				}
			],
			"name": "poolInfo",
			"outputs": [
				{
					"internalType": "contract IERC20",
					"name": "lpToken",
					"type": "address"
				},
				{
					"internalType": "uint256",
					"name": "allocPoint",
					"type": "uint256"
				},
				{
					"internalType": "uint256",
					"name": "lastRewardBlock",
					"type": "uint256"
				},
				{
					"internalType": "uint256",
					"name": "accERC20PerShare",
					"type": "uint256"
				}
			],
			"stateMutability": "view",
			"type": "function"
		},
		{
			"inputs": [],
			"name": "poolLength",
			"outputs": [
				{
					"internalType": "uint256",
					"name": "",
					"type": "uint256"
				}
			],
			"stateMutability": "view",
			"type": "function"
		},
		{
			"inputs": [],
			"name": "renounceOwnership",
			"outputs": [],
			"stateMutability": "nonpayable",
			"type": "function"
		},
		{
			"inputs": [],
			"name": "rewardPerBlock",
			"outputs": [
				{
					"internalType": "uint256",
					"name": "",
					"type": "uint256"
				}
			],
			"stateMutability": "view",
			"type": "function"
		},
		{
			"inputs": [
				{
					"internalType": "uint256",
					"name": "_pid",
					"type": "uint256"
				},
				{
					"internalType": "uint256",
					"name": "_allocPoint",
					"type": "uint256"
				},
				{
					"internalType": "bool",
					"name": "_withUpdate",
					"type": "bool"
				}
			],
			"name": "set",
			"outputs": [],
			"stateMutability": "nonpayable",
			"type": "function"
		},
		{
			"inputs": [],
			"name": "startBlock",
			"outputs": [
				{
					"internalType": "uint256",
					"name": "",
					"type": "uint256"
				}
			],
			"stateMutability": "view",
			"type": "function"
		},
		{
			"inputs": [],
			"name": "totalAllocPoint",
			"outputs": [
				{
					"internalType": "uint256",
					"name": "",
					"type": "uint256"
				}
			],
			"stateMutability": "view",
			"type": "function"
		},
		{
			"inputs": [],
			"name": "totalPending",
			"outputs": [
				{
					"internalType": "uint256",
					"name": "",
					"type": "uint256"
				}
			],
			"stateMutability": "view",
			"type": "function"
		},
		{
			"inputs": [
				{
					"internalType": "address",
					"name": "newOwner",
					"type": "address"
				}
			],
			"name": "transferOwnership",
			"outputs": [],
			"stateMutability": "nonpayable",
			"type": "function"
		},
		{
			"inputs": [
				{
					"internalType": "uint256",
					"name": "_pid",
					"type": "uint256"
				}
			],
			"name": "updatePool",
			"outputs": [],
			"stateMutability": "nonpayable",
			"type": "function"
		},
		{
			"inputs": [
				{
					"internalType": "uint256",
					"name": "",
					"type": "uint256"
				},
				{
					"internalType": "address",
					"name": "",
					"type": "address"
				}
			],
			"name": "userInfo",
			"outputs": [
				{
					"internalType": "uint256",
					"name": "amount",
					"type": "uint256"
				},
				{
					"internalType": "uint256",
					"name": "rewardDebt",
					"type": "uint256"
				}
			],
			"stateMutability": "view",
			"type": "function"
		},
		{
			"inputs": [
				{
					"internalType": "uint256",
					"name": "_pid",
					"type": "uint256"
				},
				{
					"internalType": "uint256",
					"name": "_amount",
					"type": "uint256"
				}
			],
			"name": "withdraw",
			"outputs": [],
			"stateMutability": "nonpayable",
			"type": "function"
		}
	]
}