{
	"data": {
		"bytecode": {
			"linkReferences": {},
			"object": "60806040523480156200001157600080fd5b50604051620016b6380380620016b6833981810160405281019062000037919062000095565b806000806101000a81548173ffffffffffffffffffffffffffffffffffffffff021916908373ffffffffffffffffffffffffffffffffffffffff160217905550506200011a565b6000815190506200008f8162000100565b92915050565b600060208284031215620000ae57620000ad620000fb565b5b6000620000be848285016200007e565b91505092915050565b6000620000d482620000db565b9050919050565b600073ffffffffffffffffffffffffffffffffffffffff82169050919050565b600080fd5b6200010b81620000c7565b81146200011757600080fd5b50565b61158c806200012a6000396000f3fe608060405234801561001057600080fd5b50600436106101365760003560e01c80638a083087116100b8578063b99c5f5b1161007c578063b99c5f5b14610315578063d316cf0c14610331578063d91208a31461034d578063f76541761461036b578063f7d31b6214610375578063fea9b3f0146103a557610136565b80638a08308714610261578063984f857a1461027d578063a65bbcaf146102ad578063aa945b18146102c9578063b35aab9f146102f957610136565b8063419759f5116100ff578063419759f5146101b95780635cef99a4146101d7578063692b69ae146101f55780636ebcf6071461021357806388c4116c1461024357610136565b8062a863501461013b57806313723c251461014557806319252b8814610163578063236aea2e1461017f578063338871121461019b575b600080fd5b6101436103c3565b005b61014d6103f0565b60405161015a9190611269565b60405180910390f35b61017d60048036038101906101789190611043565b6103f6565b005b61019960048036038101906101949190610d98565b61051f565b005b6101a36105d5565b6040516101b09190611269565b60405180910390f35b6101c161067f565b6040516101ce9190611269565b60405180910390f35b6101df610685565b6040516101ec9190611269565b60405180910390f35b6101fd61068b565b60405161020a9190611269565b60405180910390f35b61022d60048036038101906102289190610cfe565b610691565b60405161023a9190611269565b60405180910390f35b61024b6106a9565b604051610258919061124e565b60405180910390f35b61027b60048036038101906102769190610f48565b6106cd565b005b61029760048036038101906102929190610eb5565b610745565b6040516102a49190611233565b60405180910390f35b6102c760048036038101906102c29190610deb565b6107dd565b005b6102e360048036038101906102de9190610d58565b610884565b6040516102f09190611269565b60405180910390f35b610313600480360381019061030e9190610fc3565b61093e565b005b61032f600480360381019061032a9190611043565b6109b0565b005b61034b60048036038101906103469190610fc3565b610ad0565b005b610355610b42565b6040516103629190611269565b60405180910390f35b610373610b48565b005b61038f600480360381019061038a9190610f08565b610bad565b60405161039c9190611233565b60405180910390f35b6103ad610c65565b6040516103ba9190611269565b60405180910390f35b60006003546004546005546103d891906112f2565b6103e291906112f2565b90506103ed816109b0565b50565b60045481565b80600681905550806001600082825461040f91906112f2565b9250508190555080600260003373ffffffffffffffffffffffffffffffffffffffff1673ffffffffffffffffffffffffffffffffffffffff168152602001908152602001600020600082825461046591906112f2565b9250508190555060008054906101000a900473ffffffffffffffffffffffffffffffffffffffff1673ffffffffffffffffffffffffffffffffffffffff166323b872dd3330846040518463ffffffff1660e01b81526004016104c993929190611155565b602060405180830381600087803b1580156104e357600080fd5b505af11580156104f7573d6000803e3d6000fd5b505050506040513d601f19601f8201168201806040525081019061051b9190611016565b5050565b6007546008819055508273ffffffffffffffffffffffffffffffffffffffff1663c9c6539683836040518363ffffffff1660e01b815260040161056392919061112c565b602060405180830381600087803b15801561057d57600080fd5b505af1158015610591573d6000803e3d6000fd5b505050506040513d601f19601f820116820180604052508101906105b59190610d2b565b506001600760008282546105c991906112f2565b92505081905550505050565b60008060008054906101000a900473ffffffffffffffffffffffffffffffffffffffff1673ffffffffffffffffffffffffffffffffffffffff166318160ddd6040518163ffffffff1660e01b815260040160206040518083038186803b15801561063e57600080fd5b505afa158015610652573d6000803e3d6000fd5b505050506040513d601f19601f820116820180604052508101906106769190611070565b90508091505090565b60065481565b60055481565b60085481565b60026020528060005260406000206000915090505481565b60008054906101000a900473ffffffffffffffffffffffffffffffffffffffff1681565b8473ffffffffffffffffffffffffffffffffffffffff16635f70edcf858585856040518563ffffffff1660e01b815260040161070c9493929190611284565b600060405180830381600087803b15801561072657600080fd5b505af115801561073a573d6000803e3d6000fd5b505050505050505050565b60008373ffffffffffffffffffffffffffffffffffffffff1663a9059cbb84846040518363ffffffff1660e01b815260040161078292919061120a565b602060405180830381600087803b15801561079c57600080fd5b505af11580156107b0573d6000803e3d6000fd5b505050506040513d601f19601f820116820180604052508101906107d49190611016565b90509392505050565b8873ffffffffffffffffffffffffffffffffffffffff1663e8e3370089898989898989896040518963ffffffff1660e01b815260040161082498979695949392919061118c565b606060405180830381600087803b15801561083e57600080fd5b505af1158015610852573d6000803e3d6000fd5b505050506040513d601f19601f82011682018060405250810190610876919061109d565b505050505050505050505050565b60008060008054906101000a900473ffffffffffffffffffffffffffffffffffffffff1673ffffffffffffffffffffffffffffffffffffffff1663dd62ed3e85856040518363ffffffff1660e01b81526004016108e292919061112c565b60206040518083038186803b1580156108fa57600080fd5b505afa15801561090e573d6000803e3d6000fd5b505050506040513d601f19601f820116820180604052508101906109329190611070565b90508091505092915050565b8273ffffffffffffffffffffffffffffffffffffffff1663441a3e7083836040518363ffffffff1660e01b81526004016109799291906112c9565b600060405180830381600087803b15801561099357600080fd5b505af11580156109a7573d6000803e3d6000fd5b50505050505050565b80600160008282546109c291906113d3565b9250508190555080600260003373ffffffffffffffffffffffffffffffffffffffff1673ffffffffffffffffffffffffffffffffffffffff1681526020019081526020016000206000828254610a1891906113d3565b9250508190555060008054906101000a900473ffffffffffffffffffffffffffffffffffffffff1673ffffffffffffffffffffffffffffffffffffffff1663a9059cbb33836040518363ffffffff1660e01b8152600401610a7a92919061120a565b602060405180830381600087803b158015610a9457600080fd5b505af1158015610aa8573d6000803e3d6000fd5b505050506040513d601f19601f82011682018060405250810190610acc9190611016565b5050565b8273ffffffffffffffffffffffffffffffffffffffff1663e2bbb15883836040518363ffffffff1660e01b8152600401610b0b9291906112c9565b600060405180830381600087803b158015610b2557600080fd5b505af1158015610b39573d6000803e3d6000fd5b50505050505050565b60035481565b6064601e600654610b599190611379565b610b639190611348565b60038190555060646028600654610b7a9190611379565b610b849190611348565b60048190555060646014600654610b9b9190611379565b610ba59190611348565b600581905550565b60008060009054906101000a900473ffffffffffffffffffffffffffffffffffffffff1673ffffffffffffffffffffffffffffffffffffffff1663095ea7b384846040518363ffffffff1660e01b8152600401610c0b92919061120a565b602060405180830381600087803b158015610c2557600080fd5b505af1158015610c39573d6000803e3d6000fd5b505050506040513d601f19601f82011682018060405250810190610c5d9190611016565b905092915050565b60075481565b600081359050610c7a816114fa565b92915050565b600081519050610c8f816114fa565b92915050565b600081359050610ca481611511565b92915050565b600081519050610cb981611511565b92915050565b600081359050610cce81611528565b92915050565b600081359050610ce38161153f565b92915050565b600081519050610cf88161153f565b92915050565b600060208284031215610d1457610d136114f5565b5b6000610d2284828501610c6b565b91505092915050565b600060208284031215610d4157610d406114f5565b5b6000610d4f84828501610c80565b91505092915050565b60008060408385031215610d6f57610d6e6114f5565b5b6000610d7d85828601610c6b565b9250506020610d8e85828601610c6b565b9150509250929050565b600080600060608486031215610db157610db06114f5565b5b6000610dbf86828701610c6b565b9350506020610dd086828701610c6b565b9250506040610de186828701610c6b565b9150509250925092565b60008060008060008060008060006101208a8c031215610e0e57610e0d6114f5565b5b6000610e1c8c828d01610c6b565b9950506020610e2d8c828d01610c6b565b9850506040610e3e8c828d01610c6b565b9750506060610e4f8c828d01610cd4565b9650506080610e608c828d01610cd4565b95505060a0610e718c828d01610cd4565b94505060c0610e828c828d01610cd4565b93505060e0610e938c828d01610c6b565b925050610100610ea58c828d01610cd4565b9150509295985092959850929598565b600080600060608486031215610ece57610ecd6114f5565b5b6000610edc86828701610c6b565b9350506020610eed86828701610c6b565b9250506040610efe86828701610cd4565b9150509250925092565b60008060408385031215610f1f57610f1e6114f5565b5b6000610f2d85828601610c6b565b9250506020610f3e85828601610cd4565b9150509250929050565b600080600080600060a08688031215610f6457610f636114f5565b5b6000610f7288828901610c6b565b9550506020610f8388828901610cd4565b9450506040610f9488828901610cbf565b9350506060610fa588828901610c95565b9250506080610fb688828901610c6b565b9150509295509295909350565b600080600060608486031215610fdc57610fdb6114f5565b5b6000610fea86828701610c6b565b9350506020610ffb86828701610cd4565b925050604061100c86828701610cd4565b9150509250925092565b60006020828403121561102c5761102b6114f5565b5b600061103a84828501610caa565b91505092915050565b600060208284031215611059576110586114f5565b5b600061106784828501610cd4565b91505092915050565b600060208284031215611086576110856114f5565b5b600061109484828501610ce9565b91505092915050565b6000806000606084860312156110b6576110b56114f5565b5b60006110c486828701610ce9565b93505060206110d586828701610ce9565b92505060406110e686828701610ce9565b9150509250925092565b6110f981611407565b82525050565b61110881611419565b82525050565b61111781611461565b82525050565b61112681611457565b82525050565b600060408201905061114160008301856110f0565b61114e60208301846110f0565b9392505050565b600060608201905061116a60008301866110f0565b61117760208301856110f0565b611184604083018461111d565b949350505050565b6000610100820190506111a2600083018b6110f0565b6111af602083018a6110f0565b6111bc604083018961111d565b6111c9606083018861111d565b6111d6608083018761111d565b6111e360a083018661111d565b6111f060c08301856110f0565b6111fd60e083018461111d565b9998505050505050505050565b600060408201905061121f60008301856110f0565b61122c602083018461111d565b9392505050565b600060208201905061124860008301846110ff565b92915050565b6000602082019050611263600083018461110e565b92915050565b600060208201905061127e600083018461111d565b92915050565b6000608082019050611299600083018761111d565b6112a6602083018661110e565b6112b360408301856110ff565b6112c060608301846110f0565b95945050505050565b60006040820190506112de600083018561111d565b6112eb602083018461111d565b9392505050565b60006112fd82611457565b915061130883611457565b9250827fffffffffffffffffffffffffffffffffffffffffffffffffffffffffffffffff0382111561133d5761133c611497565b5b828201905092915050565b600061135382611457565b915061135e83611457565b92508261136e5761136d6114c6565b5b828204905092915050565b600061138482611457565b915061138f83611457565b9250817fffffffffffffffffffffffffffffffffffffffffffffffffffffffffffffffff04831182151516156113c8576113c7611497565b5b828202905092915050565b60006113de82611457565b91506113e983611457565b9250828210156113fc576113fb611497565b5b828203905092915050565b600061141282611437565b9050919050565b60008115159050919050565b600061143082611407565b9050919050565b600073ffffffffffffffffffffffffffffffffffffffff82169050919050565b6000819050919050565b600061146c82611473565b9050919050565b600061147e82611485565b9050919050565b600061149082611437565b9050919050565b7f4e487b7100000000000000000000000000000000000000000000000000000000600052601160045260246000fd5b7f4e487b7100000000000000000000000000000000000000000000000000000000600052601260045260246000fd5b600080fd5b61150381611407565b811461150e57600080fd5b50565b61151a81611419565b811461152557600080fd5b50565b61153181611425565b811461153c57600080fd5b50565b61154881611457565b811461155357600080fd5b5056fea26469706673582212208aa88139bf9d487bdbf27a1f6b8a7867b995d5bea3781f52f0fbf7c7e54e857764736f6c63430008070033",
			"opcodes": "PUSH1 0x80 PUSH1 0x40 MSTORE CALLVALUE DUP1 ISZERO PUSH3 0x11 JUMPI PUSH1 0x0 DUP1 REVERT JUMPDEST POP PUSH1 0x40 MLOAD PUSH3 0x16B6 CODESIZE SUB DUP1 PUSH3 0x16B6 DUP4 CODECOPY DUP2 DUP2 ADD PUSH1 0x40 MSTORE DUP2 ADD SWAP1 PUSH3 0x37 SWAP2 SWAP1 PUSH3 0x95 JUMP JUMPDEST DUP1 PUSH1 0x0 DUP1 PUSH2 0x100 EXP DUP2 SLOAD DUP2 PUSH20 0xFFFFFFFFFFFFFFFFFFFFFFFFFFFFFFFFFFFFFFFF MUL NOT AND SWAP1 DUP4 PUSH20 0xFFFFFFFFFFFFFFFFFFFFFFFFFFFFFFFFFFFFFFFF AND MUL OR SWAP1 SSTORE POP POP PUSH3 0x11A JUMP JUMPDEST PUSH1 0x0 DUP2 MLOAD SWAP1 POP PUSH3 0x8F DUP2 PUSH3 0x100 JUMP JUMPDEST SWAP3 SWAP2 POP POP JUMP JUMPDEST PUSH1 0x0 PUSH1 0x20 DUP3 DUP5 SUB SLT ISZERO PUSH3 0xAE JUMPI PUSH3 0xAD PUSH3 0xFB JUMP JUMPDEST JUMPDEST PUSH1 0x0 PUSH3 0xBE DUP5 DUP3 DUP6 ADD PUSH3 0x7E JUMP JUMPDEST SWAP2 POP POP SWAP3 SWAP2 POP POP JUMP JUMPDEST PUSH1 0x0 PUSH3 0xD4 DUP3 PUSH3 0xDB JUMP JUMPDEST SWAP1 POP SWAP2 SWAP1 POP JUMP JUMPDEST PUSH1 0x0 PUSH20 0xFFFFFFFFFFFFFFFFFFFFFFFFFFFFFFFFFFFFFFFF DUP3 AND SWAP1 POP SWAP2 SWAP1 POP JUMP JUMPDEST PUSH1 0x0 DUP1 REVERT JUMPDEST PUSH3 0x10B DUP2 PUSH3 0xC7 JUMP JUMPDEST DUP2 EQ PUSH3 0x117 JUMPI PUSH1 0x0 DUP1 REVERT JUMPDEST POP JUMP JUMPDEST PUSH2 0x158C DUP1 PUSH3 0x12A PUSH1 0x0 CODECOPY PUSH1 0x0 RETURN INVALID PUSH1 0x80 PUSH1 0x40 MSTORE CALLVALUE DUP1 ISZERO PUSH2 0x10 JUMPI PUSH1 0x0 DUP1 REVERT JUMPDEST POP PUSH1 0x4 CALLDATASIZE LT PUSH2 0x136 JUMPI PUSH1 0x0 CALLDATALOAD PUSH1 0xE0 SHR DUP1 PUSH4 0x8A083087 GT PUSH2 0xB8 JUMPI DUP1 PUSH4 0xB99C5F5B GT PUSH2 0x7C JUMPI DUP1 PUSH4 0xB99C5F5B EQ PUSH2 0x315 JUMPI DUP1 PUSH4 0xD316CF0C EQ PUSH2 0x331 JUMPI DUP1 PUSH4 0xD91208A3 EQ PUSH2 0x34D JUMPI DUP1 PUSH4 0xF7654176 EQ PUSH2 0x36B JUMPI DUP1 PUSH4 0xF7D31B62 EQ PUSH2 0x375 JUMPI DUP1 PUSH4 0xFEA9B3F0 EQ PUSH2 0x3A5 JUMPI PUSH2 0x136 JUMP JUMPDEST DUP1 PUSH4 0x8A083087 EQ PUSH2 0x261 JUMPI DUP1 PUSH4 0x984F857A EQ PUSH2 0x27D JUMPI DUP1 PUSH4 0xA65BBCAF EQ PUSH2 0x2AD JUMPI DUP1 PUSH4 0xAA945B18 EQ PUSH2 0x2C9 JUMPI DUP1 PUSH4 0xB35AAB9F EQ PUSH2 0x2F9 JUMPI PUSH2 0x136 JUMP JUMPDEST DUP1 PUSH4 0x419759F5 GT PUSH2 0xFF JUMPI DUP1 PUSH4 0x419759F5 EQ PUSH2 0x1B9 JUMPI DUP1 PUSH4 0x5CEF99A4 EQ PUSH2 0x1D7 JUMPI DUP1 PUSH4 0x692B69AE EQ PUSH2 0x1F5 JUMPI DUP1 PUSH4 0x6EBCF607 EQ PUSH2 0x213 JUMPI DUP1 PUSH4 0x88C4116C EQ PUSH2 0x243 JUMPI PUSH2 0x136 JUMP JUMPDEST DUP1 PUSH3 0xA86350 EQ PUSH2 0x13B JUMPI DUP1 PUSH4 0x13723C25 EQ PUSH2 0x145 JUMPI DUP1 PUSH4 0x19252B88 EQ PUSH2 0x163 JUMPI DUP1 PUSH4 0x236AEA2E EQ PUSH2 0x17F JUMPI DUP1 PUSH4 0x33887112 EQ PUSH2 0x19B JUMPI JUMPDEST PUSH1 0x0 DUP1 REVERT JUMPDEST PUSH2 0x143 PUSH2 0x3C3 JUMP JUMPDEST STOP JUMPDEST PUSH2 0x14D PUSH2 0x3F0 JUMP JUMPDEST PUSH1 0x40 MLOAD PUSH2 0x15A SWAP2 SWAP1 PUSH2 0x1269 JUMP JUMPDEST PUSH1 0x40 MLOAD DUP1 SWAP2 SUB SWAP1 RETURN JUMPDEST PUSH2 0x17D PUSH1 0x4 DUP1 CALLDATASIZE SUB DUP2 ADD SWAP1 PUSH2 0x178 SWAP2 SWAP1 PUSH2 0x1043 JUMP JUMPDEST PUSH2 0x3F6 JUMP JUMPDEST STOP JUMPDEST PUSH2 0x199 PUSH1 0x4 DUP1 CALLDATASIZE SUB DUP2 ADD SWAP1 PUSH2 0x194 SWAP2 SWAP1 PUSH2 0xD98 JUMP JUMPDEST PUSH2 0x51F JUMP JUMPDEST STOP JUMPDEST PUSH2 0x1A3 PUSH2 0x5D5 JUMP JUMPDEST PUSH1 0x40 MLOAD PUSH2 0x1B0 SWAP2 SWAP1 PUSH2 0x1269 JUMP JUMPDEST PUSH1 0x40 MLOAD DUP1 SWAP2 SUB SWAP1 RETURN JUMPDEST PUSH2 0x1C1 PUSH2 0x67F JUMP JUMPDEST PUSH1 0x40 MLOAD PUSH2 0x1CE SWAP2 SWAP1 PUSH2 0x1269 JUMP JUMPDEST PUSH1 0x40 MLOAD DUP1 SWAP2 SUB SWAP1 RETURN JUMPDEST PUSH2 0x1DF PUSH2 0x685 JUMP JUMPDEST PUSH1 0x40 MLOAD PUSH2 0x1EC SWAP2 SWAP1 PUSH2 0x1269 JUMP JUMPDEST PUSH1 0x40 MLOAD DUP1 SWAP2 SUB SWAP1 RETURN JUMPDEST PUSH2 0x1FD PUSH2 0x68B JUMP JUMPDEST PUSH1 0x40 MLOAD PUSH2 0x20A SWAP2 SWAP1 PUSH2 0x1269 JUMP JUMPDEST PUSH1 0x40 MLOAD DUP1 SWAP2 SUB SWAP1 RETURN JUMPDEST PUSH2 0x22D PUSH1 0x4 DUP1 CALLDATASIZE SUB DUP2 ADD SWAP1 PUSH2 0x228 SWAP2 SWAP1 PUSH2 0xCFE JUMP JUMPDEST PUSH2 0x691 JUMP JUMPDEST PUSH1 0x40 MLOAD PUSH2 0x23A SWAP2 SWAP1 PUSH2 0x1269 JUMP JUMPDEST PUSH1 0x40 MLOAD DUP1 SWAP2 SUB SWAP1 RETURN JUMPDEST PUSH2 0x24B PUSH2 0x6A9 JUMP JUMPDEST PUSH1 0x40 MLOAD PUSH2 0x258 SWAP2 SWAP1 PUSH2 0x124E JUMP JUMPDEST PUSH1 0x40 MLOAD DUP1 SWAP2 SUB SWAP1 RETURN JUMPDEST PUSH2 0x27B PUSH1 0x4 DUP1 CALLDATASIZE SUB DUP2 ADD SWAP1 PUSH2 0x276 SWAP2 SWAP1 PUSH2 0xF48 JUMP JUMPDEST PUSH2 0x6CD JUMP JUMPDEST STOP JUMPDEST PUSH2 0x297 PUSH1 0x4 DUP1 CALLDATASIZE SUB DUP2 ADD SWAP1 PUSH2 0x292 SWAP2 SWAP1 PUSH2 0xEB5 JUMP JUMPDEST PUSH2 0x745 JUMP JUMPDEST PUSH1 0x40 MLOAD PUSH2 0x2A4 SWAP2 SWAP1 PUSH2 0x1233 JUMP JUMPDEST PUSH1 0x40 MLOAD DUP1 SWAP2 SUB SWAP1 RETURN JUMPDEST PUSH2 0x2C7 PUSH1 0x4 DUP1 CALLDATASIZE SUB DUP2 ADD SWAP1 PUSH2 0x2C2 SWAP2 SWAP1 PUSH2 0xDEB JUMP JUMPDEST PUSH2 0x7DD JUMP JUMPDEST STOP JUMPDEST PUSH2 0x2E3 PUSH1 0x4 DUP1 CALLDATASIZE SUB DUP2 ADD SWAP1 PUSH2 0x2DE SWAP2 SWAP1 PUSH2 0xD58 JUMP JUMPDEST PUSH2 0x884 JUMP JUMPDEST PUSH1 0x40 MLOAD PUSH2 0x2F0 SWAP2 SWAP1 PUSH2 0x1269 JUMP JUMPDEST PUSH1 0x40 MLOAD DUP1 SWAP2 SUB SWAP1 RETURN JUMPDEST PUSH2 0x313 PUSH1 0x4 DUP1 CALLDATASIZE SUB DUP2 ADD SWAP1 PUSH2 0x30E SWAP2 SWAP1 PUSH2 0xFC3 JUMP JUMPDEST PUSH2 0x93E JUMP JUMPDEST STOP JUMPDEST PUSH2 0x32F PUSH1 0x4 DUP1 CALLDATASIZE SUB DUP2 ADD SWAP1 PUSH2 0x32A SWAP2 SWAP1 PUSH2 0x1043 JUMP JUMPDEST PUSH2 0x9B0 JUMP JUMPDEST STOP JUMPDEST PUSH2 0x34B PUSH1 0x4 DUP1 CALLDATASIZE SUB DUP2 ADD SWAP1 PUSH2 0x346 SWAP2 SWAP1 PUSH2 0xFC3 JUMP JUMPDEST PUSH2 0xAD0 JUMP JUMPDEST STOP JUMPDEST PUSH2 0x355 PUSH2 0xB42 JUMP JUMPDEST PUSH1 0x40 MLOAD PUSH2 0x362 SWAP2 SWAP1 PUSH2 0x1269 JUMP JUMPDEST PUSH1 0x40 MLOAD DUP1 SWAP2 SUB SWAP1 RETURN JUMPDEST PUSH2 0x373 PUSH2 0xB48 JUMP JUMPDEST STOP JUMPDEST PUSH2 0x38F PUSH1 0x4 DUP1 CALLDATASIZE SUB DUP2 ADD SWAP1 PUSH2 0x38A SWAP2 SWAP1 PUSH2 0xF08 JUMP JUMPDEST PUSH2 0xBAD JUMP JUMPDEST PUSH1 0x40 MLOAD PUSH2 0x39C SWAP2 SWAP1 PUSH2 0x1233 JUMP JUMPDEST PUSH1 0x40 MLOAD DUP1 SWAP2 SUB SWAP1 RETURN JUMPDEST PUSH2 0x3AD PUSH2 0xC65 JUMP JUMPDEST PUSH1 0x40 MLOAD PUSH2 0x3BA SWAP2 SWAP1 PUSH2 0x1269 JUMP JUMPDEST PUSH1 0x40 MLOAD DUP1 SWAP2 SUB SWAP1 RETURN JUMPDEST PUSH1 0x0 PUSH1 0x3 SLOAD PUSH1 0x4 SLOAD PUSH1 0x5 SLOAD PUSH2 0x3D8 SWAP2 SWAP1 PUSH2 0x12F2 JUMP JUMPDEST PUSH2 0x3E2 SWAP2 SWAP1 PUSH2 0x12F2 JUMP JUMPDEST SWAP1 POP PUSH2 0x3ED DUP2 PUSH2 0x9B0 JUMP JUMPDEST POP JUMP JUMPDEST PUSH1 0x4 SLOAD DUP2 JUMP JUMPDEST DUP1 PUSH1 0x6 DUP2 SWAP1 SSTORE POP DUP1 PUSH1 0x1 PUSH1 0x0 DUP3 DUP3 SLOAD PUSH2 0x40F SWAP2 SWAP1 PUSH2 0x12F2 JUMP JUMPDEST SWAP3 POP POP DUP2 SWAP1 SSTORE POP DUP1 PUSH1 0x2 PUSH1 0x0 CALLER PUSH20 0xFFFFFFFFFFFFFFFFFFFFFFFFFFFFFFFFFFFFFFFF AND PUSH20 0xFFFFFFFFFFFFFFFFFFFFFFFFFFFFFFFFFFFFFFFF AND DUP2 MSTORE PUSH1 0x20 ADD SWAP1 DUP2 MSTORE PUSH1 0x20 ADD PUSH1 0x0 KECCAK256 PUSH1 0x0 DUP3 DUP3 SLOAD PUSH2 0x465 SWAP2 SWAP1 PUSH2 0x12F2 JUMP JUMPDEST SWAP3 POP POP DUP2 SWAP1 SSTORE POP PUSH1 0x0 DUP1 SLOAD SWAP1 PUSH2 0x100 EXP SWAP1 DIV PUSH20 0xFFFFFFFFFFFFFFFFFFFFFFFFFFFFFFFFFFFFFFFF AND PUSH20 0xFFFFFFFFFFFFFFFFFFFFFFFFFFFFFFFFFFFFFFFF AND PUSH4 0x23B872DD CALLER ADDRESS DUP5 PUSH1 0x40 MLOAD DUP5 PUSH4 0xFFFFFFFF AND PUSH1 0xE0 SHL DUP2 MSTORE PUSH1 0x4 ADD PUSH2 0x4C9 SWAP4 SWAP3 SWAP2 SWAP1 PUSH2 0x1155 JUMP JUMPDEST PUSH1 0x20 PUSH1 0x40 MLOAD DUP1 DUP4 SUB DUP2 PUSH1 0x0 DUP8 DUP1 EXTCODESIZE ISZERO DUP1 ISZERO PUSH2 0x4E3 JUMPI PUSH1 0x0 DUP1 REVERT JUMPDEST POP GAS CALL ISZERO DUP1 ISZERO PUSH2 0x4F7 JUMPI RETURNDATASIZE PUSH1 0x0 DUP1 RETURNDATACOPY RETURNDATASIZE PUSH1 0x0 REVERT JUMPDEST POP POP POP POP PUSH1 0x40 MLOAD RETURNDATASIZE PUSH1 0x1F NOT PUSH1 0x1F DUP3 ADD AND DUP3 ADD DUP1 PUSH1 0x40 MSTORE POP DUP2 ADD SWAP1 PUSH2 0x51B SWAP2 SWAP1 PUSH2 0x1016 JUMP JUMPDEST POP POP JUMP JUMPDEST PUSH1 0x7 SLOAD PUSH1 0x8 DUP2 SWAP1 SSTORE POP DUP3 PUSH20 0xFFFFFFFFFFFFFFFFFFFFFFFFFFFFFFFFFFFFFFFF AND PUSH4 0xC9C65396 DUP4 DUP4 PUSH1 0x40 MLOAD DUP4 PUSH4 0xFFFFFFFF AND PUSH1 0xE0 SHL DUP2 MSTORE PUSH1 0x4 ADD PUSH2 0x563 SWAP3 SWAP2 SWAP1 PUSH2 0x112C JUMP JUMPDEST PUSH1 0x20 PUSH1 0x40 MLOAD DUP1 DUP4 SUB DUP2 PUSH1 0x0 DUP8 DUP1 EXTCODESIZE ISZERO DUP1 ISZERO PUSH2 0x57D JUMPI PUSH1 0x0 DUP1 REVERT JUMPDEST POP GAS CALL ISZERO DUP1 ISZERO PUSH2 0x591 JUMPI RETURNDATASIZE PUSH1 0x0 DUP1 RETURNDATACOPY RETURNDATASIZE PUSH1 0x0 REVERT JUMPDEST POP POP POP POP PUSH1 0x40 MLOAD RETURNDATASIZE PUSH1 0x1F NOT PUSH1 0x1F DUP3 ADD AND DUP3 ADD DUP1 PUSH1 0x40 MSTORE POP DUP2 ADD SWAP1 PUSH2 0x5B5 SWAP2 SWAP1 PUSH2 0xD2B JUMP JUMPDEST POP PUSH1 0x1 PUSH1 0x7 PUSH1 0x0 DUP3 DUP3 SLOAD PUSH2 0x5C9 SWAP2 SWAP1 PUSH2 0x12F2 JUMP JUMPDEST SWAP3 POP POP DUP2 SWAP1 SSTORE POP POP POP POP JUMP JUMPDEST PUSH1 0x0 DUP1 PUSH1 0x0 DUP1 SLOAD SWAP1 PUSH2 0x100 EXP SWAP1 DIV PUSH20 0xFFFFFFFFFFFFFFFFFFFFFFFFFFFFFFFFFFFFFFFF AND PUSH20 0xFFFFFFFFFFFFFFFFFFFFFFFFFFFFFFFFFFFFFFFF AND PUSH4 0x18160DDD PUSH1 0x40 MLOAD DUP2 PUSH4 0xFFFFFFFF AND PUSH1 0xE0 SHL DUP2 MSTORE PUSH1 0x4 ADD PUSH1 0x20 PUSH1 0x40 MLOAD DUP1 DUP4 SUB DUP2 DUP7 DUP1 EXTCODESIZE ISZERO DUP1 ISZERO PUSH2 0x63E JUMPI PUSH1 0x0 DUP1 REVERT JUMPDEST POP GAS STATICCALL ISZERO DUP1 ISZERO PUSH2 0x652 JUMPI RETURNDATASIZE PUSH1 0x0 DUP1 RETURNDATACOPY RETURNDATASIZE PUSH1 0x0 REVERT JUMPDEST POP POP POP POP PUSH1 0x40 MLOAD RETURNDATASIZE PUSH1 0x1F NOT PUSH1 0x1F DUP3 ADD AND DUP3 ADD DUP1 PUSH1 0x40 MSTORE POP DUP2 ADD SWAP1 PUSH2 0x676 SWAP2 SWAP1 PUSH2 0x1070 JUMP JUMPDEST SWAP1 POP DUP1 SWAP2 POP POP SWAP1 JUMP JUMPDEST PUSH1 0x6 SLOAD DUP2 JUMP JUMPDEST PUSH1 0x5 SLOAD DUP2 JUMP JUMPDEST PUSH1 0x8 SLOAD DUP2 JUMP JUMPDEST PUSH1 0x2 PUSH1 0x20 MSTORE DUP1 PUSH1 0x0 MSTORE PUSH1 0x40 PUSH1 0x0 KECCAK256 PUSH1 0x0 SWAP2 POP SWAP1 POP SLOAD DUP2 JUMP JUMPDEST PUSH1 0x0 DUP1 SLOAD SWAP1 PUSH2 0x100 EXP SWAP1 DIV PUSH20 0xFFFFFFFFFFFFFFFFFFFFFFFFFFFFFFFFFFFFFFFF AND DUP2 JUMP JUMPDEST DUP5 PUSH20 0xFFFFFFFFFFFFFFFFFFFFFFFFFFFFFFFFFFFFFFFF AND PUSH4 0x5F70EDCF DUP6 DUP6 DUP6 DUP6 PUSH1 0x40 MLOAD DUP6 PUSH4 0xFFFFFFFF AND PUSH1 0xE0 SHL DUP2 MSTORE PUSH1 0x4 ADD PUSH2 0x70C SWAP5 SWAP4 SWAP3 SWAP2 SWAP1 PUSH2 0x1284 JUMP JUMPDEST PUSH1 0x0 PUSH1 0x40 MLOAD DUP1 DUP4 SUB DUP2 PUSH1 0x0 DUP8 DUP1 EXTCODESIZE ISZERO DUP1 ISZERO PUSH2 0x726 JUMPI PUSH1 0x0 DUP1 REVERT JUMPDEST POP GAS CALL ISZERO DUP1 ISZERO PUSH2 0x73A JUMPI RETURNDATASIZE PUSH1 0x0 DUP1 RETURNDATACOPY RETURNDATASIZE PUSH1 0x0 REVERT JUMPDEST POP POP POP POP POP POP POP POP POP JUMP JUMPDEST PUSH1 0x0 DUP4 PUSH20 0xFFFFFFFFFFFFFFFFFFFFFFFFFFFFFFFFFFFFFFFF AND PUSH4 0xA9059CBB DUP5 DUP5 PUSH1 0x40 MLOAD DUP4 PUSH4 0xFFFFFFFF AND PUSH1 0xE0 SHL DUP2 MSTORE PUSH1 0x4 ADD PUSH2 0x782 SWAP3 SWAP2 SWAP1 PUSH2 0x120A JUMP JUMPDEST PUSH1 0x20 PUSH1 0x40 MLOAD DUP1 DUP4 SUB DUP2 PUSH1 0x0 DUP8 DUP1 EXTCODESIZE ISZERO DUP1 ISZERO PUSH2 0x79C JUMPI PUSH1 0x0 DUP1 REVERT JUMPDEST POP GAS CALL ISZERO DUP1 ISZERO PUSH2 0x7B0 JUMPI RETURNDATASIZE PUSH1 0x0 DUP1 RETURNDATACOPY RETURNDATASIZE PUSH1 0x0 REVERT JUMPDEST POP POP POP POP PUSH1 0x40 MLOAD RETURNDATASIZE PUSH1 0x1F NOT PUSH1 0x1F DUP3 ADD AND DUP3 ADD DUP1 PUSH1 0x40 MSTORE POP DUP2 ADD SWAP1 PUSH2 0x7D4 SWAP2 SWAP1 PUSH2 0x1016 JUMP JUMPDEST SWAP1 POP SWAP4 SWAP3 POP POP POP JUMP JUMPDEST DUP9 PUSH20 0xFFFFFFFFFFFFFFFFFFFFFFFFFFFFFFFFFFFFFFFF AND PUSH4 0xE8E33700 DUP10 DUP10 DUP10 DUP10 DUP10 DUP10 DUP10 DUP10 PUSH1 0x40 MLOAD DUP10 PUSH4 0xFFFFFFFF AND PUSH1 0xE0 SHL DUP2 MSTORE PUSH1 0x4 ADD PUSH2 0x824 SWAP9 SWAP8 SWAP7 SWAP6 SWAP5 SWAP4 SWAP3 SWAP2 SWAP1 PUSH2 0x118C JUMP JUMPDEST PUSH1 0x60 PUSH1 0x40 MLOAD DUP1 DUP4 SUB DUP2 PUSH1 0x0 DUP8 DUP1 EXTCODESIZE ISZERO DUP1 ISZERO PUSH2 0x83E JUMPI PUSH1 0x0 DUP1 REVERT JUMPDEST POP GAS CALL ISZERO DUP1 ISZERO PUSH2 0x852 JUMPI RETURNDATASIZE PUSH1 0x0 DUP1 RETURNDATACOPY RETURNDATASIZE PUSH1 0x0 REVERT JUMPDEST POP POP POP POP PUSH1 0x40 MLOAD RETURNDATASIZE PUSH1 0x1F NOT PUSH1 0x1F DUP3 ADD AND DUP3 ADD DUP1 PUSH1 0x40 MSTORE POP DUP2 ADD SWAP1 PUSH2 0x876 SWAP2 SWAP1 PUSH2 0x109D JUMP JUMPDEST POP POP POP POP POP POP POP POP POP POP POP POP JUMP JUMPDEST PUSH1 0x0 DUP1 PUSH1 0x0 DUP1 SLOAD SWAP1 PUSH2 0x100 EXP SWAP1 DIV PUSH20 0xFFFFFFFFFFFFFFFFFFFFFFFFFFFFFFFFFFFFFFFF AND PUSH20 0xFFFFFFFFFFFFFFFFFFFFFFFFFFFFFFFFFFFFFFFF AND PUSH4 0xDD62ED3E DUP6 DUP6 PUSH1 0x40 MLOAD DUP4 PUSH4 0xFFFFFFFF AND PUSH1 0xE0 SHL DUP2 MSTORE PUSH1 0x4 ADD PUSH2 0x8E2 SWAP3 SWAP2 SWAP1 PUSH2 0x112C JUMP JUMPDEST PUSH1 0x20 PUSH1 0x40 MLOAD DUP1 DUP4 SUB DUP2 DUP7 DUP1 EXTCODESIZE ISZERO DUP1 ISZERO PUSH2 0x8FA JUMPI PUSH1 0x0 DUP1 REVERT JUMPDEST POP GAS STATICCALL ISZERO DUP1 ISZERO PUSH2 0x90E JUMPI RETURNDATASIZE PUSH1 0x0 DUP1 RETURNDATACOPY RETURNDATASIZE PUSH1 0x0 REVERT JUMPDEST POP POP POP POP PUSH1 0x40 MLOAD RETURNDATASIZE PUSH1 0x1F NOT PUSH1 0x1F DUP3 ADD AND DUP3 ADD DUP1 PUSH1 0x40 MSTORE POP DUP2 ADD SWAP1 PUSH2 0x932 SWAP2 SWAP1 PUSH2 0x1070 JUMP JUMPDEST SWAP1 POP DUP1 SWAP2 POP POP SWAP3 SWAP2 POP POP JUMP JUMPDEST DUP3 PUSH20 0xFFFFFFFFFFFFFFFFFFFFFFFFFFFFFFFFFFFFFFFF AND PUSH4 0x441A3E70 DUP4 DUP4 PUSH1 0x40 MLOAD DUP4 PUSH4 0xFFFFFFFF AND PUSH1 0xE0 SHL DUP2 MSTORE PUSH1 0x4 ADD PUSH2 0x979 SWAP3 SWAP2 SWAP1 PUSH2 0x12C9 JUMP JUMPDEST PUSH1 0x0 PUSH1 0x40 MLOAD DUP1 DUP4 SUB DUP2 PUSH1 0x0 DUP8 DUP1 EXTCODESIZE ISZERO DUP1 ISZERO PUSH2 0x993 JUMPI PUSH1 0x0 DUP1 REVERT JUMPDEST POP GAS CALL ISZERO DUP1 ISZERO PUSH2 0x9A7 JUMPI RETURNDATASIZE PUSH1 0x0 DUP1 RETURNDATACOPY RETURNDATASIZE PUSH1 0x0 REVERT JUMPDEST POP POP POP POP POP POP POP JUMP JUMPDEST DUP1 PUSH1 0x1 PUSH1 0x0 DUP3 DUP3 SLOAD PUSH2 0x9C2 SWAP2 SWAP1 PUSH2 0x13D3 JUMP JUMPDEST SWAP3 POP POP DUP2 SWAP1 SSTORE POP DUP1 PUSH1 0x2 PUSH1 0x0 CALLER PUSH20 0xFFFFFFFFFFFFFFFFFFFFFFFFFFFFFFFFFFFFFFFF AND PUSH20 0xFFFFFFFFFFFFFFFFFFFFFFFFFFFFFFFFFFFFFFFF AND DUP2 MSTORE PUSH1 0x20 ADD SWAP1 DUP2 MSTORE PUSH1 0x20 ADD PUSH1 0x0 KECCAK256 PUSH1 0x0 DUP3 DUP3 SLOAD PUSH2 0xA18 SWAP2 SWAP1 PUSH2 0x13D3 JUMP JUMPDEST SWAP3 POP POP DUP2 SWAP1 SSTORE POP PUSH1 0x0 DUP1 SLOAD SWAP1 PUSH2 0x100 EXP SWAP1 DIV PUSH20 0xFFFFFFFFFFFFFFFFFFFFFFFFFFFFFFFFFFFFFFFF AND PUSH20 0xFFFFFFFFFFFFFFFFFFFFFFFFFFFFFFFFFFFFFFFF AND PUSH4 0xA9059CBB CALLER DUP4 PUSH1 0x40 MLOAD DUP4 PUSH4 0xFFFFFFFF AND PUSH1 0xE0 SHL DUP2 MSTORE PUSH1 0x4 ADD PUSH2 0xA7A SWAP3 SWAP2 SWAP1 PUSH2 0x120A JUMP JUMPDEST PUSH1 0x20 PUSH1 0x40 MLOAD DUP1 DUP4 SUB DUP2 PUSH1 0x0 DUP8 DUP1 EXTCODESIZE ISZERO DUP1 ISZERO PUSH2 0xA94 JUMPI PUSH1 0x0 DUP1 REVERT JUMPDEST POP GAS CALL ISZERO DUP1 ISZERO PUSH2 0xAA8 JUMPI RETURNDATASIZE PUSH1 0x0 DUP1 RETURNDATACOPY RETURNDATASIZE PUSH1 0x0 REVERT JUMPDEST POP POP POP POP PUSH1 0x40 MLOAD RETURNDATASIZE PUSH1 0x1F NOT PUSH1 0x1F DUP3 ADD AND DUP3 ADD DUP1 PUSH1 0x40 MSTORE POP DUP2 ADD SWAP1 PUSH2 0xACC SWAP2 SWAP1 PUSH2 0x1016 JUMP JUMPDEST POP POP JUMP JUMPDEST DUP3 PUSH20 0xFFFFFFFFFFFFFFFFFFFFFFFFFFFFFFFFFFFFFFFF AND PUSH4 0xE2BBB158 DUP4 DUP4 PUSH1 0x40 MLOAD DUP4 PUSH4 0xFFFFFFFF AND PUSH1 0xE0 SHL DUP2 MSTORE PUSH1 0x4 ADD PUSH2 0xB0B SWAP3 SWAP2 SWAP1 PUSH2 0x12C9 JUMP JUMPDEST PUSH1 0x0 PUSH1 0x40 MLOAD DUP1 DUP4 SUB DUP2 PUSH1 0x0 DUP8 DUP1 EXTCODESIZE ISZERO DUP1 ISZERO PUSH2 0xB25 JUMPI PUSH1 0x0 DUP1 REVERT JUMPDEST POP GAS CALL ISZERO DUP1 ISZERO PUSH2 0xB39 JUMPI RETURNDATASIZE PUSH1 0x0 DUP1 RETURNDATACOPY RETURNDATASIZE PUSH1 0x0 REVERT JUMPDEST POP POP POP POP POP POP POP JUMP JUMPDEST PUSH1 0x3 SLOAD DUP2 JUMP JUMPDEST PUSH1 0x64 PUSH1 0x1E PUSH1 0x6 SLOAD PUSH2 0xB59 SWAP2 SWAP1 PUSH2 0x1379 JUMP JUMPDEST PUSH2 0xB63 SWAP2 SWAP1 PUSH2 0x1348 JUMP JUMPDEST PUSH1 0x3 DUP2 SWAP1 SSTORE POP PUSH1 0x64 PUSH1 0x28 PUSH1 0x6 SLOAD PUSH2 0xB7A SWAP2 SWAP1 PUSH2 0x1379 JUMP JUMPDEST PUSH2 0xB84 SWAP2 SWAP1 PUSH2 0x1348 JUMP JUMPDEST PUSH1 0x4 DUP2 SWAP1 SSTORE POP PUSH1 0x64 PUSH1 0x14 PUSH1 0x6 SLOAD PUSH2 0xB9B SWAP2 SWAP1 PUSH2 0x1379 JUMP JUMPDEST PUSH2 0xBA5 SWAP2 SWAP1 PUSH2 0x1348 JUMP JUMPDEST PUSH1 0x5 DUP2 SWAP1 SSTORE POP JUMP JUMPDEST PUSH1 0x0 DUP1 PUSH1 0x0 SWAP1 SLOAD SWAP1 PUSH2 0x100 EXP SWAP1 DIV PUSH20 0xFFFFFFFFFFFFFFFFFFFFFFFFFFFFFFFFFFFFFFFF AND PUSH20 0xFFFFFFFFFFFFFFFFFFFFFFFFFFFFFFFFFFFFFFFF AND PUSH4 0x95EA7B3 DUP5 DUP5 PUSH1 0x40 MLOAD DUP4 PUSH4 0xFFFFFFFF AND PUSH1 0xE0 SHL DUP2 MSTORE PUSH1 0x4 ADD PUSH2 0xC0B SWAP3 SWAP2 SWAP1 PUSH2 0x120A JUMP JUMPDEST PUSH1 0x20 PUSH1 0x40 MLOAD DUP1 DUP4 SUB DUP2 PUSH1 0x0 DUP8 DUP1 EXTCODESIZE ISZERO DUP1 ISZERO PUSH2 0xC25 JUMPI PUSH1 0x0 DUP1 REVERT JUMPDEST POP GAS CALL ISZERO DUP1 ISZERO PUSH2 0xC39 JUMPI RETURNDATASIZE PUSH1 0x0 DUP1 RETURNDATACOPY RETURNDATASIZE PUSH1 0x0 REVERT JUMPDEST POP POP POP POP PUSH1 0x40 MLOAD RETURNDATASIZE PUSH1 0x1F NOT PUSH1 0x1F DUP3 ADD AND DUP3 ADD DUP1 PUSH1 0x40 MSTORE POP DUP2 ADD SWAP1 PUSH2 0xC5D SWAP2 SWAP1 PUSH2 0x1016 JUMP JUMPDEST SWAP1 POP SWAP3 SWAP2 POP POP JUMP JUMPDEST PUSH1 0x7 SLOAD DUP2 JUMP JUMPDEST PUSH1 0x0 DUP2 CALLDATALOAD SWAP1 POP PUSH2 0xC7A DUP2 PUSH2 0x14FA JUMP JUMPDEST SWAP3 SWAP2 POP POP JUMP JUMPDEST PUSH1 0x0 DUP2 MLOAD SWAP1 POP PUSH2 0xC8F DUP2 PUSH2 0x14FA JUMP JUMPDEST SWAP3 SWAP2 POP POP JUMP JUMPDEST PUSH1 0x0 DUP2 CALLDATALOAD SWAP1 POP PUSH2 0xCA4 DUP2 PUSH2 0x1511 JUMP JUMPDEST SWAP3 SWAP2 POP POP JUMP JUMPDEST PUSH1 0x0 DUP2 MLOAD SWAP1 POP PUSH2 0xCB9 DUP2 PUSH2 0x1511 JUMP JUMPDEST SWAP3 SWAP2 POP POP JUMP JUMPDEST PUSH1 0x0 DUP2 CALLDATALOAD SWAP1 POP PUSH2 0xCCE DUP2 PUSH2 0x1528 JUMP JUMPDEST SWAP3 SWAP2 POP POP JUMP JUMPDEST PUSH1 0x0 DUP2 CALLDATALOAD SWAP1 POP PUSH2 0xCE3 DUP2 PUSH2 0x153F JUMP JUMPDEST SWAP3 SWAP2 POP POP JUMP JUMPDEST PUSH1 0x0 DUP2 MLOAD SWAP1 POP PUSH2 0xCF8 DUP2 PUSH2 0x153F JUMP JUMPDEST SWAP3 SWAP2 POP POP JUMP JUMPDEST PUSH1 0x0 PUSH1 0x20 DUP3 DUP5 SUB SLT ISZERO PUSH2 0xD14 JUMPI PUSH2 0xD13 PUSH2 0x14F5 JUMP JUMPDEST JUMPDEST PUSH1 0x0 PUSH2 0xD22 DUP5 DUP3 DUP6 ADD PUSH2 0xC6B JUMP JUMPDEST SWAP2 POP POP SWAP3 SWAP2 POP POP JUMP JUMPDEST PUSH1 0x0 PUSH1 0x20 DUP3 DUP5 SUB SLT ISZERO PUSH2 0xD41 JUMPI PUSH2 0xD40 PUSH2 0x14F5 JUMP JUMPDEST JUMPDEST PUSH1 0x0 PUSH2 0xD4F DUP5 DUP3 DUP6 ADD PUSH2 0xC80 JUMP JUMPDEST SWAP2 POP POP SWAP3 SWAP2 POP POP JUMP JUMPDEST PUSH1 0x0 DUP1 PUSH1 0x40 DUP4 DUP6 SUB SLT ISZERO PUSH2 0xD6F JUMPI PUSH2 0xD6E PUSH2 0x14F5 JUMP JUMPDEST JUMPDEST PUSH1 0x0 PUSH2 0xD7D DUP6 DUP3 DUP7 ADD PUSH2 0xC6B JUMP JUMPDEST SWAP3 POP POP PUSH1 0x20 PUSH2 0xD8E DUP6 DUP3 DUP7 ADD PUSH2 0xC6B JUMP JUMPDEST SWAP2 POP POP SWAP3 POP SWAP3 SWAP1 POP JUMP JUMPDEST PUSH1 0x0 DUP1 PUSH1 0x0 PUSH1 0x60 DUP5 DUP7 SUB SLT ISZERO PUSH2 0xDB1 JUMPI PUSH2 0xDB0 PUSH2 0x14F5 JUMP JUMPDEST JUMPDEST PUSH1 0x0 PUSH2 0xDBF DUP7 DUP3 DUP8 ADD PUSH2 0xC6B JUMP JUMPDEST SWAP4 POP POP PUSH1 0x20 PUSH2 0xDD0 DUP7 DUP3 DUP8 ADD PUSH2 0xC6B JUMP JUMPDEST SWAP3 POP POP PUSH1 0x40 PUSH2 0xDE1 DUP7 DUP3 DUP8 ADD PUSH2 0xC6B JUMP JUMPDEST SWAP2 POP POP SWAP3 POP SWAP3 POP SWAP3 JUMP JUMPDEST PUSH1 0x0 DUP1 PUSH1 0x0 DUP1 PUSH1 0x0 DUP1 PUSH1 0x0 DUP1 PUSH1 0x0 PUSH2 0x120 DUP11 DUP13 SUB SLT ISZERO PUSH2 0xE0E JUMPI PUSH2 0xE0D PUSH2 0x14F5 JUMP JUMPDEST JUMPDEST PUSH1 0x0 PUSH2 0xE1C DUP13 DUP3 DUP14 ADD PUSH2 0xC6B JUMP JUMPDEST SWAP10 POP POP PUSH1 0x20 PUSH2 0xE2D DUP13 DUP3 DUP14 ADD PUSH2 0xC6B JUMP JUMPDEST SWAP9 POP POP PUSH1 0x40 PUSH2 0xE3E DUP13 DUP3 DUP14 ADD PUSH2 0xC6B JUMP JUMPDEST SWAP8 POP POP PUSH1 0x60 PUSH2 0xE4F DUP13 DUP3 DUP14 ADD PUSH2 0xCD4 JUMP JUMPDEST SWAP7 POP POP PUSH1 0x80 PUSH2 0xE60 DUP13 DUP3 DUP14 ADD PUSH2 0xCD4 JUMP JUMPDEST SWAP6 POP POP PUSH1 0xA0 PUSH2 0xE71 DUP13 DUP3 DUP14 ADD PUSH2 0xCD4 JUMP JUMPDEST SWAP5 POP POP PUSH1 0xC0 PUSH2 0xE82 DUP13 DUP3 DUP14 ADD PUSH2 0xCD4 JUMP JUMPDEST SWAP4 POP POP PUSH1 0xE0 PUSH2 0xE93 DUP13 DUP3 DUP14 ADD PUSH2 0xC6B JUMP JUMPDEST SWAP3 POP POP PUSH2 0x100 PUSH2 0xEA5 DUP13 DUP3 DUP14 ADD PUSH2 0xCD4 JUMP JUMPDEST SWAP2 POP POP SWAP3 SWAP6 SWAP9 POP SWAP3 SWAP6 SWAP9 POP SWAP3 SWAP6 SWAP9 JUMP JUMPDEST PUSH1 0x0 DUP1 PUSH1 0x0 PUSH1 0x60 DUP5 DUP7 SUB SLT ISZERO PUSH2 0xECE JUMPI PUSH2 0xECD PUSH2 0x14F5 JUMP JUMPDEST JUMPDEST PUSH1 0x0 PUSH2 0xEDC DUP7 DUP3 DUP8 ADD PUSH2 0xC6B JUMP JUMPDEST SWAP4 POP POP PUSH1 0x20 PUSH2 0xEED DUP7 DUP3 DUP8 ADD PUSH2 0xC6B JUMP JUMPDEST SWAP3 POP POP PUSH1 0x40 PUSH2 0xEFE DUP7 DUP3 DUP8 ADD PUSH2 0xCD4 JUMP JUMPDEST SWAP2 POP POP SWAP3 POP SWAP3 POP SWAP3 JUMP JUMPDEST PUSH1 0x0 DUP1 PUSH1 0x40 DUP4 DUP6 SUB SLT ISZERO PUSH2 0xF1F JUMPI PUSH2 0xF1E PUSH2 0x14F5 JUMP JUMPDEST JUMPDEST PUSH1 0x0 PUSH2 0xF2D DUP6 DUP3 DUP7 ADD PUSH2 0xC6B JUMP JUMPDEST SWAP3 POP POP PUSH1 0x20 PUSH2 0xF3E DUP6 DUP3 DUP7 ADD PUSH2 0xCD4 JUMP JUMPDEST SWAP2 POP POP SWAP3 POP SWAP3 SWAP1 POP JUMP JUMPDEST PUSH1 0x0 DUP1 PUSH1 0x0 DUP1 PUSH1 0x0 PUSH1 0xA0 DUP7 DUP9 SUB SLT ISZERO PUSH2 0xF64 JUMPI PUSH2 0xF63 PUSH2 0x14F5 JUMP JUMPDEST JUMPDEST PUSH1 0x0 PUSH2 0xF72 DUP9 DUP3 DUP10 ADD PUSH2 0xC6B JUMP JUMPDEST SWAP6 POP POP PUSH1 0x20 PUSH2 0xF83 DUP9 DUP3 DUP10 ADD PUSH2 0xCD4 JUMP JUMPDEST SWAP5 POP POP PUSH1 0x40 PUSH2 0xF94 DUP9 DUP3 DUP10 ADD PUSH2 0xCBF JUMP JUMPDEST SWAP4 POP POP PUSH1 0x60 PUSH2 0xFA5 DUP9 DUP3 DUP10 ADD PUSH2 0xC95 JUMP JUMPDEST SWAP3 POP POP PUSH1 0x80 PUSH2 0xFB6 DUP9 DUP3 DUP10 ADD PUSH2 0xC6B JUMP JUMPDEST SWAP2 POP POP SWAP3 SWAP6 POP SWAP3 SWAP6 SWAP1 SWAP4 POP JUMP JUMPDEST PUSH1 0x0 DUP1 PUSH1 0x0 PUSH1 0x60 DUP5 DUP7 SUB SLT ISZERO PUSH2 0xFDC JUMPI PUSH2 0xFDB PUSH2 0x14F5 JUMP JUMPDEST JUMPDEST PUSH1 0x0 PUSH2 0xFEA DUP7 DUP3 DUP8 ADD PUSH2 0xC6B JUMP JUMPDEST SWAP4 POP POP PUSH1 0x20 PUSH2 0xFFB DUP7 DUP3 DUP8 ADD PUSH2 0xCD4 JUMP JUMPDEST SWAP3 POP POP PUSH1 0x40 PUSH2 0x100C DUP7 DUP3 DUP8 ADD PUSH2 0xCD4 JUMP JUMPDEST SWAP2 POP POP SWAP3 POP SWAP3 POP SWAP3 JUMP JUMPDEST PUSH1 0x0 PUSH1 0x20 DUP3 DUP5 SUB SLT ISZERO PUSH2 0x102C JUMPI PUSH2 0x102B PUSH2 0x14F5 JUMP JUMPDEST JUMPDEST PUSH1 0x0 PUSH2 0x103A DUP5 DUP3 DUP6 ADD PUSH2 0xCAA JUMP JUMPDEST SWAP2 POP POP SWAP3 SWAP2 POP POP JUMP JUMPDEST PUSH1 0x0 PUSH1 0x20 DUP3 DUP5 SUB SLT ISZERO PUSH2 0x1059 JUMPI PUSH2 0x1058 PUSH2 0x14F5 JUMP JUMPDEST JUMPDEST PUSH1 0x0 PUSH2 0x1067 DUP5 DUP3 DUP6 ADD PUSH2 0xCD4 JUMP JUMPDEST SWAP2 POP POP SWAP3 SWAP2 POP POP JUMP JUMPDEST PUSH1 0x0 PUSH1 0x20 DUP3 DUP5 SUB SLT ISZERO PUSH2 0x1086 JUMPI PUSH2 0x1085 PUSH2 0x14F5 JUMP JUMPDEST JUMPDEST PUSH1 0x0 PUSH2 0x1094 DUP5 DUP3 DUP6 ADD PUSH2 0xCE9 JUMP JUMPDEST SWAP2 POP POP SWAP3 SWAP2 POP POP JUMP JUMPDEST PUSH1 0x0 DUP1 PUSH1 0x0 PUSH1 0x60 DUP5 DUP7 SUB SLT ISZERO PUSH2 0x10B6 JUMPI PUSH2 0x10B5 PUSH2 0x14F5 JUMP JUMPDEST JUMPDEST PUSH1 0x0 PUSH2 0x10C4 DUP7 DUP3 DUP8 ADD PUSH2 0xCE9 JUMP JUMPDEST SWAP4 POP POP PUSH1 0x20 PUSH2 0x10D5 DUP7 DUP3 DUP8 ADD PUSH2 0xCE9 JUMP JUMPDEST SWAP3 POP POP PUSH1 0x40 PUSH2 0x10E6 DUP7 DUP3 DUP8 ADD PUSH2 0xCE9 JUMP JUMPDEST SWAP2 POP POP SWAP3 POP SWAP3 POP SWAP3 JUMP JUMPDEST PUSH2 0x10F9 DUP2 PUSH2 0x1407 JUMP JUMPDEST DUP3 MSTORE POP POP JUMP JUMPDEST PUSH2 0x1108 DUP2 PUSH2 0x1419 JUMP JUMPDEST DUP3 MSTORE POP POP JUMP JUMPDEST PUSH2 0x1117 DUP2 PUSH2 0x1461 JUMP JUMPDEST DUP3 MSTORE POP POP JUMP JUMPDEST PUSH2 0x1126 DUP2 PUSH2 0x1457 JUMP JUMPDEST DUP3 MSTORE POP POP JUMP JUMPDEST PUSH1 0x0 PUSH1 0x40 DUP3 ADD SWAP1 POP PUSH2 0x1141 PUSH1 0x0 DUP4 ADD DUP6 PUSH2 0x10F0 JUMP JUMPDEST PUSH2 0x114E PUSH1 0x20 DUP4 ADD DUP5 PUSH2 0x10F0 JUMP JUMPDEST SWAP4 SWAP3 POP POP POP JUMP JUMPDEST PUSH1 0x0 PUSH1 0x60 DUP3 ADD SWAP1 POP PUSH2 0x116A PUSH1 0x0 DUP4 ADD DUP7 PUSH2 0x10F0 JUMP JUMPDEST PUSH2 0x1177 PUSH1 0x20 DUP4 ADD DUP6 PUSH2 0x10F0 JUMP JUMPDEST PUSH2 0x1184 PUSH1 0x40 DUP4 ADD DUP5 PUSH2 0x111D JUMP JUMPDEST SWAP5 SWAP4 POP POP POP POP JUMP JUMPDEST PUSH1 0x0 PUSH2 0x100 DUP3 ADD SWAP1 POP PUSH2 0x11A2 PUSH1 0x0 DUP4 ADD DUP12 PUSH2 0x10F0 JUMP JUMPDEST PUSH2 0x11AF PUSH1 0x20 DUP4 ADD DUP11 PUSH2 0x10F0 JUMP JUMPDEST PUSH2 0x11BC PUSH1 0x40 DUP4 ADD DUP10 PUSH2 0x111D JUMP JUMPDEST PUSH2 0x11C9 PUSH1 0x60 DUP4 ADD DUP9 PUSH2 0x111D JUMP JUMPDEST PUSH2 0x11D6 PUSH1 0x80 DUP4 ADD DUP8 PUSH2 0x111D JUMP JUMPDEST PUSH2 0x11E3 PUSH1 0xA0 DUP4 ADD DUP7 PUSH2 0x111D JUMP JUMPDEST PUSH2 0x11F0 PUSH1 0xC0 DUP4 ADD DUP6 PUSH2 0x10F0 JUMP JUMPDEST PUSH2 0x11FD PUSH1 0xE0 DUP4 ADD DUP5 PUSH2 0x111D JUMP JUMPDEST SWAP10 SWAP9 POP POP POP POP POP POP POP POP POP JUMP JUMPDEST PUSH1 0x0 PUSH1 0x40 DUP3 ADD SWAP1 POP PUSH2 0x121F PUSH1 0x0 DUP4 ADD DUP6 PUSH2 0x10F0 JUMP JUMPDEST PUSH2 0x122C PUSH1 0x20 DUP4 ADD DUP5 PUSH2 0x111D JUMP JUMPDEST SWAP4 SWAP3 POP POP POP JUMP JUMPDEST PUSH1 0x0 PUSH1 0x20 DUP3 ADD SWAP1 POP PUSH2 0x1248 PUSH1 0x0 DUP4 ADD DUP5 PUSH2 0x10FF JUMP JUMPDEST SWAP3 SWAP2 POP POP JUMP JUMPDEST PUSH1 0x0 PUSH1 0x20 DUP3 ADD SWAP1 POP PUSH2 0x1263 PUSH1 0x0 DUP4 ADD DUP5 PUSH2 0x110E JUMP JUMPDEST SWAP3 SWAP2 POP POP JUMP JUMPDEST PUSH1 0x0 PUSH1 0x20 DUP3 ADD SWAP1 POP PUSH2 0x127E PUSH1 0x0 DUP4 ADD DUP5 PUSH2 0x111D JUMP JUMPDEST SWAP3 SWAP2 POP POP JUMP JUMPDEST PUSH1 0x0 PUSH1 0x80 DUP3 ADD SWAP1 POP PUSH2 0x1299 PUSH1 0x0 DUP4 ADD DUP8 PUSH2 0x111D JUMP JUMPDEST PUSH2 0x12A6 PUSH1 0x20 DUP4 ADD DUP7 PUSH2 0x110E JUMP JUMPDEST PUSH2 0x12B3 PUSH1 0x40 DUP4 ADD DUP6 PUSH2 0x10FF JUMP JUMPDEST PUSH2 0x12C0 PUSH1 0x60 DUP4 ADD DUP5 PUSH2 0x10F0 JUMP JUMPDEST SWAP6 SWAP5 POP POP POP POP POP JUMP JUMPDEST PUSH1 0x0 PUSH1 0x40 DUP3 ADD SWAP1 POP PUSH2 0x12DE PUSH1 0x0 DUP4 ADD DUP6 PUSH2 0x111D JUMP JUMPDEST PUSH2 0x12EB PUSH1 0x20 DUP4 ADD DUP5 PUSH2 0x111D JUMP JUMPDEST SWAP4 SWAP3 POP POP POP JUMP JUMPDEST PUSH1 0x0 PUSH2 0x12FD DUP3 PUSH2 0x1457 JUMP JUMPDEST SWAP2 POP PUSH2 0x1308 DUP4 PUSH2 0x1457 JUMP JUMPDEST SWAP3 POP DUP3 PUSH32 0xFFFFFFFFFFFFFFFFFFFFFFFFFFFFFFFFFFFFFFFFFFFFFFFFFFFFFFFFFFFFFFFF SUB DUP3 GT ISZERO PUSH2 0x133D JUMPI PUSH2 0x133C PUSH2 0x1497 JUMP JUMPDEST JUMPDEST DUP3 DUP3 ADD SWAP1 POP SWAP3 SWAP2 POP POP JUMP JUMPDEST PUSH1 0x0 PUSH2 0x1353 DUP3 PUSH2 0x1457 JUMP JUMPDEST SWAP2 POP PUSH2 0x135E DUP4 PUSH2 0x1457 JUMP JUMPDEST SWAP3 POP DUP3 PUSH2 0x136E JUMPI PUSH2 0x136D PUSH2 0x14C6 JUMP JUMPDEST JUMPDEST DUP3 DUP3 DIV SWAP1 POP SWAP3 SWAP2 POP POP JUMP JUMPDEST PUSH1 0x0 PUSH2 0x1384 DUP3 PUSH2 0x1457 JUMP JUMPDEST SWAP2 POP PUSH2 0x138F DUP4 PUSH2 0x1457 JUMP JUMPDEST SWAP3 POP DUP2 PUSH32 0xFFFFFFFFFFFFFFFFFFFFFFFFFFFFFFFFFFFFFFFFFFFFFFFFFFFFFFFFFFFFFFFF DIV DUP4 GT DUP3 ISZERO ISZERO AND ISZERO PUSH2 0x13C8 JUMPI PUSH2 0x13C7 PUSH2 0x1497 JUMP JUMPDEST JUMPDEST DUP3 DUP3 MUL SWAP1 POP SWAP3 SWAP2 POP POP JUMP JUMPDEST PUSH1 0x0 PUSH2 0x13DE DUP3 PUSH2 0x1457 JUMP JUMPDEST SWAP2 POP PUSH2 0x13E9 DUP4 PUSH2 0x1457 JUMP JUMPDEST SWAP3 POP DUP3 DUP3 LT ISZERO PUSH2 0x13FC JUMPI PUSH2 0x13FB PUSH2 0x1497 JUMP JUMPDEST JUMPDEST DUP3 DUP3 SUB SWAP1 POP SWAP3 SWAP2 POP POP JUMP JUMPDEST PUSH1 0x0 PUSH2 0x1412 DUP3 PUSH2 0x1437 JUMP JUMPDEST SWAP1 POP SWAP2 SWAP1 POP JUMP JUMPDEST PUSH1 0x0 DUP2 ISZERO ISZERO SWAP1 POP SWAP2 SWAP1 POP JUMP JUMPDEST PUSH1 0x0 PUSH2 0x1430 DUP3 PUSH2 0x1407 JUMP JUMPDEST SWAP1 POP SWAP2 SWAP1 POP JUMP JUMPDEST PUSH1 0x0 PUSH20 0xFFFFFFFFFFFFFFFFFFFFFFFFFFFFFFFFFFFFFFFF DUP3 AND SWAP1 POP SWAP2 SWAP1 POP JUMP JUMPDEST PUSH1 0x0 DUP2 SWAP1 POP SWAP2 SWAP1 POP JUMP JUMPDEST PUSH1 0x0 PUSH2 0x146C DUP3 PUSH2 0x1473 JUMP JUMPDEST SWAP1 POP SWAP2 SWAP1 POP JUMP JUMPDEST PUSH1 0x0 PUSH2 0x147E DUP3 PUSH2 0x1485 JUMP JUMPDEST SWAP1 POP SWAP2 SWAP1 POP JUMP JUMPDEST PUSH1 0x0 PUSH2 0x1490 DUP3 PUSH2 0x1437 JUMP JUMPDEST SWAP1 POP SWAP2 SWAP1 POP JUMP JUMPDEST PUSH32 0x4E487B7100000000000000000000000000000000000000000000000000000000 PUSH1 0x0 MSTORE PUSH1 0x11 PUSH1 0x4 MSTORE PUSH1 0x24 PUSH1 0x0 REVERT JUMPDEST PUSH32 0x4E487B7100000000000000000000000000000000000000000000000000000000 PUSH1 0x0 MSTORE PUSH1 0x12 PUSH1 0x4 MSTORE PUSH1 0x24 PUSH1 0x0 REVERT JUMPDEST PUSH1 0x0 DUP1 REVERT JUMPDEST PUSH2 0x1503 DUP2 PUSH2 0x1407 JUMP JUMPDEST DUP2 EQ PUSH2 0x150E JUMPI PUSH1 0x0 DUP1 REVERT JUMPDEST POP JUMP JUMPDEST PUSH2 0x151A DUP2 PUSH2 0x1419 JUMP JUMPDEST DUP2 EQ PUSH2 0x1525 JUMPI PUSH1 0x0 DUP1 REVERT JUMPDEST POP JUMP JUMPDEST PUSH2 0x1531 DUP2 PUSH2 0x1425 JUMP JUMPDEST DUP2 EQ PUSH2 0x153C JUMPI PUSH1 0x0 DUP1 REVERT JUMPDEST POP JUMP JUMPDEST PUSH2 0x1548 DUP2 PUSH2 0x1457 JUMP JUMPDEST DUP2 EQ PUSH2 0x1553 JUMPI PUSH1 0x0 DUP1 REVERT JUMPDEST POP JUMP INVALID LOG2 PUSH5 0x6970667358 0x22 SLT KECCAK256 DUP11 0xA8 DUP2 CODECOPY 0xBF SWAP14 BASEFEE PUSH28 0xDBF27A1F6B8A7867B995D5BEA3781F52F0FBF7C7E54E857764736F6C PUSH4 0x43000807 STOP CALLER "
		},
		"gasEstimates": {
			"creation": {
				"codeDepositCost": "1103200",
				"executionCost": "infinite",
				"totalCost": "infinite"
			},
			"external": {
				"BNBtoken()": "2708",
				"CallAllowance(address,address)": "infinite",
				"CallApprove(address,uint256)": "infinite",
				"CallTotalSuply()": "infinite",
				"Calltransfer(address,address,uint256)": "infinite",
				"DepositBNB(uint256)": "infinite",
				"FarmDeposit(address,uint256,uint256)": "infinite",
				"FarmWithdraw(address,uint256,uint256)": "infinite",
				"LPval1()": "2495",
				"LPval2()": "2475",
				"LPval3()": "2474",
				"SendForLiquidity(uint256)": "infinite",
				"_balances(address)": "2903",
				"addLP(address,address,address,uint256,uint256,uint256,uint256,address,uint256)": "infinite",
				"addinFarm(address,uint256,address,bool,address)": "infinite",
				"createPool(address,address,address)": "infinite",
				"currentPool()": "2496",
				"depositAmount()": "2452",
				"liquidityamount()": "infinite",
				"poolnum()": "2561",
				"split()": "infinite"
			}
		},
		"methodIdentifiers": {
			"BNBtoken()": "88c4116c",
			"CallAllowance(address,address)": "aa945b18",
			"CallApprove(address,uint256)": "f7d31b62",
			"CallTotalSuply()": "33887112",
			"Calltransfer(address,address,uint256)": "984f857a",
			"DepositBNB(uint256)": "19252b88",
			"FarmDeposit(address,uint256,uint256)": "d316cf0c",
			"FarmWithdraw(address,uint256,uint256)": "b35aab9f",
			"LPval1()": "d91208a3",
			"LPval2()": "13723c25",
			"LPval3()": "5cef99a4",
			"SendForLiquidity(uint256)": "b99c5f5b",
			"_balances(address)": "6ebcf607",
			"addLP(address,address,address,uint256,uint256,uint256,uint256,address,uint256)": "a65bbcaf",
			"addinFarm(address,uint256,address,bool,address)": "8a083087",
			"createPool(address,address,address)": "236aea2e",
			"currentPool()": "692b69ae",
			"depositAmount()": "419759f5",
			"liquidityamount()": "00a86350",
			"poolnum()": "fea9b3f0",
			"split()": "f7654176"
		}
	},
	"abi": [
		{
			"inputs": [
				{
					"internalType": "address",
					"name": "_bnb",
					"type": "address"
				}
			],
			"stateMutability": "nonpayable",
			"type": "constructor"
		},
		{
			"inputs": [],
			"name": "BNBtoken",
			"outputs": [
				{
					"internalType": "contract IERC20",
					"name": "",
					"type": "address"
				}
			],
			"stateMutability": "view",
			"type": "function"
		},
		{
			"inputs": [
				{
					"internalType": "address",
					"name": "_owner",
					"type": "address"
				},
				{
					"internalType": "address",
					"name": "_spender",
					"type": "address"
				}
			],
			"name": "CallAllowance",
			"outputs": [
				{
					"internalType": "uint256",
					"name": "",
					"type": "uint256"
				}
			],
			"stateMutability": "view",
			"type": "function"
		},
		{
			"inputs": [
				{
					"internalType": "address",
					"name": "_spender",
					"type": "address"
				},
				{
					"internalType": "uint256",
					"name": "amount",
					"type": "uint256"
				}
			],
			"name": "CallApprove",
			"outputs": [
				{
					"internalType": "bool",
					"name": "",
					"type": "bool"
				}
			],
			"stateMutability": "nonpayable",
			"type": "function"
		},
		{
			"inputs": [],
			"name": "CallTotalSuply",
			"outputs": [
				{
					"internalType": "uint256",
					"name": "",
					"type": "uint256"
				}
			],
			"stateMutability": "view",
			"type": "function"
		},
		{
			"inputs": [
				{
					"internalType": "address",
					"name": "_account",
					"type": "address"
				},
				{
					"internalType": "address",
					"name": "recipient",
					"type": "address"
				},
				{
					"internalType": "uint256",
					"name": "amount",
					"type": "uint256"
				}
			],
			"name": "Calltransfer",
			"outputs": [
				{
					"internalType": "bool",
					"name": "",
					"type": "bool"
				}
			],
			"stateMutability": "nonpayable",
			"type": "function"
		},
		{
			"inputs": [
				{
					"internalType": "uint256",
					"name": "_amount",
					"type": "uint256"
				}
			],
			"name": "DepositBNB",
			"outputs": [],
			"stateMutability": "nonpayable",
			"type": "function"
		},
		{
			"inputs": [
				{
					"internalType": "address",
					"name": "_farm",
					"type": "address"
				},
				{
					"internalType": "uint256",
					"name": "_pid",
					"type": "uint256"
				},
				{
					"internalType": "uint256",
					"name": "_amount",
					"type": "uint256"
				}
			],
			"name": "FarmDeposit",
			"outputs": [],
			"stateMutability": "nonpayable",
			"type": "function"
		},
		{
			"inputs": [
				{
					"internalType": "address",
					"name": "_farm",
					"type": "address"
				},
				{
					"internalType": "uint256",
					"name": "_pid",
					"type": "uint256"
				},
				{
					"internalType": "uint256",
					"name": "_amount",
					"type": "uint256"
				}
			],
			"name": "FarmWithdraw",
			"outputs": [],
			"stateMutability": "nonpayable",
			"type": "function"
		},
		{
			"inputs": [],
			"name": "LPval1",
			"outputs": [
				{
					"internalType": "uint256",
					"name": "",
					"type": "uint256"
				}
			],
			"stateMutability": "view",
			"type": "function"
		},
		{
			"inputs": [],
			"name": "LPval2",
			"outputs": [
				{
					"internalType": "uint256",
					"name": "",
					"type": "uint256"
				}
			],
			"stateMutability": "view",
			"type": "function"
		},
		{
			"inputs": [],
			"name": "LPval3",
			"outputs": [
				{
					"internalType": "uint256",
					"name": "",
					"type": "uint256"
				}
			],
			"stateMutability": "view",
			"type": "function"
		},
		{
			"inputs": [
				{
					"internalType": "uint256",
					"name": "_amount",
					"type": "uint256"
				}
			],
			"name": "SendForLiquidity",
			"outputs": [],
			"stateMutability": "nonpayable",
			"type": "function"
		},
		{
			"inputs": [
				{
					"internalType": "address",
					"name": "",
					"type": "address"
				}
			],
			"name": "_balances",
			"outputs": [
				{
					"internalType": "uint256",
					"name": "",
					"type": "uint256"
				}
			],
			"stateMutability": "view",
			"type": "function"
		},
		{
			"inputs": [
				{
					"internalType": "address",
					"name": "_router",
					"type": "address"
				},
				{
					"internalType": "address",
					"name": "_tokenA",
					"type": "address"
				},
				{
					"internalType": "address",
					"name": "_tokenB",
					"type": "address"
				},
				{
					"internalType": "uint256",
					"name": "_amountAD",
					"type": "uint256"
				},
				{
					"internalType": "uint256",
					"name": "_amountBD",
					"type": "uint256"
				},
				{
					"internalType": "uint256",
					"name": "_Amin",
					"type": "uint256"
				},
				{
					"internalType": "uint256",
					"name": "_Bmin",
					"type": "uint256"
				},
				{
					"internalType": "address",
					"name": "_to",
					"type": "address"
				},
				{
					"internalType": "uint256",
					"name": "_deadline",
					"type": "uint256"
				}
			],
			"name": "addLP",
			"outputs": [],
			"stateMutability": "nonpayable",
			"type": "function"
		},
		{
			"inputs": [
				{
					"internalType": "address",
					"name": "_farm",
					"type": "address"
				},
				{
					"internalType": "uint256",
					"name": "__allocPoint",
					"type": "uint256"
				},
				{
					"internalType": "contract IERC20",
					"name": "__want",
					"type": "address"
				},
				{
					"internalType": "bool",
					"name": "__withUpdate",
					"type": "bool"
				},
				{
					"internalType": "address",
					"name": "__strat",
					"type": "address"
				}
			],
			"name": "addinFarm",
			"outputs": [],
			"stateMutability": "nonpayable",
			"type": "function"
		},
		{
			"inputs": [
				{
					"internalType": "address",
					"name": "_factory",
					"type": "address"
				},
				{
					"internalType": "address",
					"name": "_bnb",
					"type": "address"
				},
				{
					"internalType": "address",
					"name": "_Btoken",
					"type": "address"
				}
			],
			"name": "createPool",
			"outputs": [],
			"stateMutability": "nonpayable",
			"type": "function"
		},
		{
			"inputs": [],
			"name": "currentPool",
			"outputs": [
				{
					"internalType": "uint256",
					"name": "",
					"type": "uint256"
				}
			],
			"stateMutability": "view",
			"type": "function"
		},
		{
			"inputs": [],
			"name": "depositAmount",
			"outputs": [
				{
					"internalType": "uint256",
					"name": "",
					"type": "uint256"
				}
			],
			"stateMutability": "view",
			"type": "function"
		},
		{
			"inputs": [],
			"name": "liquidityamount",
			"outputs": [],
			"stateMutability": "nonpayable",
			"type": "function"
		},
		{
			"inputs": [],
			"name": "poolnum",
			"outputs": [
				{
					"internalType": "uint256",
					"name": "",
					"type": "uint256"
				}
			],
			"stateMutability": "view",
			"type": "function"
		},
		{
			"inputs": [],
			"name": "split",
			"outputs": [],
			"stateMutability": "nonpayable",
			"type": "function"
		}
	]
}